{
  "_format": "hh-sol-artifact-1",
  "contractName": "LanguagePoolsAMM",
  "sourceName": "contracts/LanguagePoolsAMM.sol",
  "abi": [
    {
      "inputs": [
        {
          "internalType": "address",
          "name": "_usdcToken",
          "type": "address"
        },
        {
          "internalType": "address",
          "name": "_voiceShares",
          "type": "address"
        }
      ],
      "stateMutability": "nonpayable",
      "type": "constructor"
    },
    {
      "inputs": [
        {
          "internalType": "address",
          "name": "owner",
          "type": "address"
        }
      ],
      "name": "OwnableInvalidOwner",
      "type": "error"
    },
    {
      "inputs": [
        {
          "internalType": "address",
          "name": "account",
          "type": "address"
        }
      ],
      "name": "OwnableUnauthorizedAccount",
      "type": "error"
    },
    {
      "inputs": [],
      "name": "ReentrancyGuardReentrantCall",
      "type": "error"
    },
    {
      "anonymous": false,
      "inputs": [
        {
          "indexed": false,
          "internalType": "string",
          "name": "language",
          "type": "string"
        },
        {
          "indexed": false,
          "internalType": "address",
          "name": "buyer",
          "type": "address"
        },
        {
          "indexed": false,
          "internalType": "uint256",
          "name": "usdcIn",
          "type": "uint256"
        },
        {
          "indexed": false,
          "internalType": "uint256",
          "name": "dataOut",
          "type": "uint256"
        }
      ],
      "name": "DataPurchased",
      "type": "event"
    },
    {
      "anonymous": false,
      "inputs": [
        {
          "indexed": false,
          "internalType": "string",
          "name": "language",
          "type": "string"
        },
        {
          "indexed": false,
          "internalType": "address",
          "name": "seller",
          "type": "address"
        },
        {
          "indexed": false,
          "internalType": "uint256",
          "name": "dataIn",
          "type": "uint256"
        },
        {
          "indexed": false,
          "internalType": "uint256",
          "name": "usdcOut",
          "type": "uint256"
        }
      ],
      "name": "DataSold",
      "type": "event"
    },
    {
      "anonymous": false,
      "inputs": [
        {
          "indexed": false,
          "internalType": "string",
          "name": "language",
          "type": "string"
        },
        {
          "indexed": false,
          "internalType": "address",
          "name": "provider",
          "type": "address"
        },
        {
          "indexed": false,
          "internalType": "uint256",
          "name": "usdcAmount",
          "type": "uint256"
        },
        {
          "indexed": false,
          "internalType": "uint256",
          "name": "dataAmount",
          "type": "uint256"
        }
      ],
      "name": "LiquidityAdded",
      "type": "event"
    },
    {
      "anonymous": false,
      "inputs": [
        {
          "indexed": false,
          "internalType": "string",
          "name": "language",
          "type": "string"
        },
        {
          "indexed": false,
          "internalType": "address",
          "name": "provider",
          "type": "address"
        },
        {
          "indexed": false,
          "internalType": "uint256",
          "name": "liquidity",
          "type": "uint256"
        }
      ],
      "name": "LiquidityRemoved",
      "type": "event"
    },
    {
      "anonymous": false,
      "inputs": [
        {
          "indexed": true,
          "internalType": "address",
          "name": "previousOwner",
          "type": "address"
        },
        {
          "indexed": true,
          "internalType": "address",
          "name": "newOwner",
          "type": "address"
        }
      ],
      "name": "OwnershipTransferred",
      "type": "event"
    },
    {
      "anonymous": false,
      "inputs": [
        {
          "indexed": false,
          "internalType": "string",
          "name": "language",
          "type": "string"
        },
        {
          "indexed": false,
          "internalType": "uint256",
          "name": "initialPrice",
          "type": "uint256"
        }
      ],
      "name": "PoolCreated",
      "type": "event"
    },
    {
      "anonymous": false,
      "inputs": [
        {
          "indexed": false,
          "internalType": "string",
          "name": "language",
          "type": "string"
        },
        {
          "indexed": false,
          "internalType": "uint256",
          "name": "newPrice",
          "type": "uint256"
        }
      ],
      "name": "PriceUpdated",
      "type": "event"
    },
    {
      "inputs": [],
      "name": "FEE_DENOMINATOR",
      "outputs": [
        {
          "internalType": "uint256",
          "name": "",
          "type": "uint256"
        }
      ],
      "stateMutability": "view",
      "type": "function"
    },
    {
      "inputs": [],
      "name": "MINIMUM_LIQUIDITY",
      "outputs": [
        {
          "internalType": "uint256",
          "name": "",
          "type": "uint256"
        }
      ],
      "stateMutability": "view",
      "type": "function"
    },
    {
      "inputs": [
        {
          "internalType": "string",
          "name": "language",
          "type": "string"
        },
        {
          "internalType": "uint256",
          "name": "usdcAmount",
          "type": "uint256"
        },
        {
          "internalType": "uint256",
          "name": "maxDataAmount",
          "type": "uint256"
        }
      ],
      "name": "addLiquidity",
      "outputs": [
        {
          "internalType": "uint256",
          "name": "liquidity",
          "type": "uint256"
        }
      ],
      "stateMutability": "nonpayable",
      "type": "function"
    },
    {
      "inputs": [
        {
          "internalType": "string",
          "name": "language",
          "type": "string"
        },
        {
          "internalType": "uint256",
          "name": "usdcIn",
          "type": "uint256"
        },
        {
          "internalType": "uint256",
          "name": "minDataOut",
          "type": "uint256"
        }
      ],
      "name": "buyData",
      "outputs": [
        {
          "internalType": "uint256",
          "name": "dataOut",
          "type": "uint256"
        }
      ],
      "stateMutability": "nonpayable",
      "type": "function"
    },
    {
      "inputs": [
        {
          "internalType": "string",
          "name": "language",
          "type": "string"
        },
        {
          "internalType": "uint256",
          "name": "initialDataSupply",
          "type": "uint256"
        },
        {
          "internalType": "uint256",
          "name": "initialPrice",
          "type": "uint256"
        }
      ],
      "name": "createPool",
      "outputs": [],
      "stateMutability": "nonpayable",
      "type": "function"
    },
    {
      "inputs": [
        {
          "internalType": "string",
          "name": "",
          "type": "string"
        },
        {
          "internalType": "address",
          "name": "",
          "type": "address"
        }
      ],
      "name": "dataAccessBalance",
      "outputs": [
        {
          "internalType": "uint256",
          "name": "",
          "type": "uint256"
        }
      ],
      "stateMutability": "view",
      "type": "function"
    },
    {
      "inputs": [],
      "name": "defaultFee",
      "outputs": [
        {
          "internalType": "uint256",
          "name": "",
          "type": "uint256"
        }
      ],
      "stateMutability": "view",
      "type": "function"
    },
    {
      "inputs": [
        {
          "internalType": "uint256",
          "name": "usdcIn",
          "type": "uint256"
        },
        {
          "internalType": "uint256",
          "name": "reserveIn",
          "type": "uint256"
        },
        {
          "internalType": "uint256",
          "name": "reserveOut",
          "type": "uint256"
        },
        {
          "internalType": "uint256",
          "name": "fee",
          "type": "uint256"
        }
      ],
      "name": "getAmountOut",
      "outputs": [
        {
          "internalType": "uint256",
          "name": "",
          "type": "uint256"
        }
      ],
      "stateMutability": "pure",
      "type": "function"
    },
    {
      "inputs": [
        {
          "internalType": "string",
          "name": "language",
          "type": "string"
        }
      ],
      "name": "getPrice",
      "outputs": [
        {
          "internalType": "uint256",
          "name": "",
          "type": "uint256"
        }
      ],
      "stateMutability": "view",
      "type": "function"
    },
    {
      "inputs": [
        {
          "internalType": "string",
          "name": "",
          "type": "string"
        }
      ],
      "name": "languagePools",
      "outputs": [
        {
          "internalType": "uint256",
          "name": "dataTokenSupply",
          "type": "uint256"
        },
        {
          "internalType": "uint256",
          "name": "usdcReserve",
          "type": "uint256"
        },
        {
          "internalType": "uint256",
          "name": "dataReserve",
          "type": "uint256"
        },
        {
          "internalType": "uint256",
          "name": "totalLiquidity",
          "type": "uint256"
        },
        {
          "internalType": "uint256",
          "name": "feePercentage",
          "type": "uint256"
        },
        {
          "internalType": "bool",
          "name": "active",
          "type": "bool"
        },
        {
          "internalType": "uint256",
          "name": "lastPriceUpdate",
          "type": "uint256"
        },
        {
          "internalType": "uint256",
          "name": "volume24h",
          "type": "uint256"
        }
      ],
      "stateMutability": "view",
      "type": "function"
    },
    {
      "inputs": [
        {
          "internalType": "string",
          "name": "",
          "type": "string"
        },
        {
          "internalType": "address",
          "name": "",
          "type": "address"
        }
      ],
      "name": "liquidityPositions",
      "outputs": [
        {
          "internalType": "uint256",
          "name": "liquidity",
          "type": "uint256"
        },
        {
          "internalType": "uint256",
          "name": "usdcDeposited",
          "type": "uint256"
        },
        {
          "internalType": "uint256",
          "name": "dataDeposited",
          "type": "uint256"
        },
        {
          "internalType": "uint256",
          "name": "rewardsClaimed",
          "type": "uint256"
        }
      ],
      "stateMutability": "view",
      "type": "function"
    },
    {
      "inputs": [
        {
          "internalType": "string",
          "name": "",
          "type": "string"
        }
      ],
      "name": "oraclePrices",
      "outputs": [
        {
          "internalType": "uint256",
          "name": "",
          "type": "uint256"
        }
      ],
      "stateMutability": "view",
      "type": "function"
    },
    {
      "inputs": [],
      "name": "owner",
      "outputs": [
        {
          "internalType": "address",
          "name": "",
          "type": "address"
        }
      ],
      "stateMutability": "view",
      "type": "function"
    },
    {
      "inputs": [
        {
          "internalType": "string",
          "name": "language",
          "type": "string"
        },
        {
          "internalType": "uint256",
          "name": "liquidity",
          "type": "uint256"
        }
      ],
      "name": "removeLiquidity",
      "outputs": [
        {
          "internalType": "uint256",
          "name": "usdcAmount",
          "type": "uint256"
        },
        {
          "internalType": "uint256",
          "name": "dataAmount",
          "type": "uint256"
        }
      ],
      "stateMutability": "nonpayable",
      "type": "function"
    },
    {
      "inputs": [],
      "name": "renounceOwnership",
      "outputs": [],
      "stateMutability": "nonpayable",
      "type": "function"
    },
    {
      "inputs": [
        {
          "internalType": "string",
          "name": "language",
          "type": "string"
        },
        {
          "internalType": "uint256",
          "name": "dataIn",
          "type": "uint256"
        },
        {
          "internalType": "uint256",
          "name": "minUsdcOut",
          "type": "uint256"
        }
      ],
      "name": "sellData",
      "outputs": [
        {
          "internalType": "uint256",
          "name": "usdcOut",
          "type": "uint256"
        }
      ],
      "stateMutability": "nonpayable",
      "type": "function"
    },
    {
      "inputs": [
        {
          "internalType": "address",
          "name": "newOwner",
          "type": "address"
        }
      ],
      "name": "transferOwnership",
      "outputs": [],
      "stateMutability": "nonpayable",
      "type": "function"
    },
    {
      "inputs": [
        {
          "internalType": "string",
          "name": "",
          "type": "string"
        }
      ],
      "name": "twapPrices",
      "outputs": [
        {
          "internalType": "uint256",
          "name": "",
          "type": "uint256"
        }
      ],
      "stateMutability": "view",
      "type": "function"
    },
    {
      "inputs": [],
      "name": "usdcToken",
      "outputs": [
        {
          "internalType": "contract IERC20",
          "name": "",
          "type": "address"
        }
      ],
      "stateMutability": "view",
      "type": "function"
    },
    {
      "inputs": [],
      "name": "voiceShares",
      "outputs": [
        {
          "internalType": "contract VoiceSharesNFT",
          "name": "",
          "type": "address"
        }
      ],
      "stateMutability": "view",
      "type": "function"
    }
  ],
  "bytecode": "0x60c0604052601e600555348015610014575f5ffd5b5060405161197e38038061197e833981016040819052610033916100e7565b338061005857604051631e4fbdf760e01b81525f600482015260240160405180910390fd5b6100618161007d565b50600180556001600160a01b039182166080521660a052610118565b5f80546001600160a01b038381166001600160a01b0319831681178455604051919092169283917f8be0079c531659141344cd1fd0a4f28419497f9722a3daafe3b4186f6b6457e09190a35050565b80516001600160a01b03811681146100e2575f5ffd5b919050565b5f5f604083850312156100f8575f5ffd5b610101836100cc565b915061010f602084016100cc565b90509250929050565b60805160a0516118296101555f395f61025c01525f818161021d015281816105700152818161096601528181610d5901526110e001526118295ff3fe608060405234801561000f575f5ffd5b5060043610610127575f3560e01c80638cde5702116100a9578063ba9a7a561161006e578063ba9a7a56146103da578063bff390a7146103e3578063ccb261e4146103f6578063d73792a914610409578063f2fde38b14610412575f5ffd5b80638cde5702146102f55780638da5cb5b1461036457806399fcd6e4146103745780639b6c52831461039c578063a03d7b32146103af575f5ffd5b80634d3f0291116100ef5780634d3f0291146102a9578063524f3889146102bc57806352707d8c146102cf5780635a6c72d0146102e2578063715018a6146102eb575f5ffd5b806302a454171461012b5780630e64879a1461017857806311eac8551461021857806328b0959d146102575780633c61c1b91461027e575b5f5ffd5b6101656101393660046114ba565b81516020818401810180516004825292820194820194909420919093529091525f908152604090205481565b6040519081526020015b60405180910390f35b6101db610186366004611505565b80516020818301810180516002808352938301929094019190912092905281546001830154918301546003840154600485015460058601546006870154600790970154949693949293919260ff909116919088565b6040805198895260208901979097529587019490945260608601929092526080850152151560a084015260c083015260e08201526101000161016f565b61023f7f000000000000000000000000000000000000000000000000000000000000000081565b6040516001600160a01b03909116815260200161016f565b61023f7f000000000000000000000000000000000000000000000000000000000000000081565b61016561028c366004611505565b805160208183018101805160068252928201919093012091525481565b6101656102b736600461153f565b610425565b6101656102ca366004611505565b6106e7565b6101656102dd366004611589565b61079a565b61016560055481565b6102f36107ef565b005b6103446103033660046114ba565b8151602081840181018051600380835293830195830195909520949052929092525f9081526040902080546001820154600283015492909301549092919084565b60408051948552602085019390935291830152606082015260800161016f565b5f546001600160a01b031661023f565b6103876103823660046115b8565b610802565b6040805192835260208301919091520161016f565b6102f36103aa36600461153f565b610a81565b6101656103bd366004611505565b805160208183018101805160078252928201919093012091525481565b6101656103e881565b6101656103f136600461153f565b610c4e565b61016561040436600461153f565b610ef7565b61016561271081565b6102f36104203660046115fa565b6111ac565b5f61042e6111e9565b5f60028560405161043f9190611613565b908152604051908190036020019020600581015490915060ff1661047e5760405162461bcd60e51b815260040161047590611629565b60405180910390fd5b5f61271082600401546127106104949190611666565b61049e908761167f565b6104a89190611696565b90505f8260020154826104bb919061167f565b90505f8284600101546104ce91906116b5565b90506104da8183611696565b9450858510156104fc5760405162461bcd60e51b8152600401610475906116c8565b600a846002015461050d9190611696565b85111561054e5760405162461bcd60e51b815260206004820152600f60248201526e547261646520746f6f206c6172676560881b6044820152606401610475565b6040516323b872dd60e01b8152336004820152306024820152604481018890527f00000000000000000000000000000000000000000000000000000000000000006001600160a01b0316906323b872dd906064016020604051808303815f875af11580156105be573d5f5f3e3d5ffd5b505050506040513d601f19601f820116820180604052508101906105e291906116f3565b6105fe5760405162461bcd60e51b815260040161047590611712565b86846001015f82825461061191906116b5565b9250508190555084846002015f82825461062b9190611666565b9250508190555086846007015f82825461064591906116b5565b925050819055508460048960405161065d9190611613565b9081526040805160209281900383019020335f9081529252812080549091906106879084906116b5565b90915550610696905088611213565b7f20d57a7da8bc30867111c791042977557cc78bfb2d34a84908af234ce3d85037883389886040516106cb949392919061176e565b60405180910390a1505050506106e060018055565b9392505050565b5f5f6002836040516106f99190611613565b908152604080519182900360209081018320610100840183528054845260018101549184019190915260028101549183018290526003810154606084015260048101546080840152600581015460ff16151560a0840152600681015460c08401526007015460e08301529091505f0361077457505f92915050565b6040810151602082015161079090670de0b6b3a764000061167f565b6106e09190611696565b5f806127106107a98482611666565b6107b3908861167f565b6107bd9190611696565b90505f6107ca858361167f565b90505f6107d783886116b5565b90506107e38183611696565b98975050505050505050565b6107f761132d565b6108005f611359565b565b5f5f61080c6111e9565b5f60028560405161081d9190611613565b908152602001604051809103902090505f60038660405161083e9190611613565b9081526040805160209281900383019020335f9081529252902080549091508511156108a55760405162461bcd60e51b8152602060048201526016602482015275496e73756666696369656e74206c697175696469747960501b6044820152606401610475565b600382015460018301546108b9908761167f565b6108c39190611696565b935081600301548260020154866108da919061167f565b6108e49190611696565b925083826001015f8282546108f99190611666565b9250508190555082826002015f8282546109139190611666565b9250508190555084826003015f82825461092d9190611666565b90915550508054859082905f90610945908490611666565b909155505060405163a9059cbb60e01b8152336004820152602481018590527f00000000000000000000000000000000000000000000000000000000000000006001600160a01b03169063a9059cbb906044016020604051808303815f875af11580156109b4573d5f5f3e3d5ffd5b505050506040513d601f19601f820116820180604052508101906109d891906116f3565b6109f45760405162461bcd60e51b815260040161047590611712565b82600487604051610a059190611613565b9081526040805160209281900383019020335f908152925281208054909190610a2f9084906116b5565b90915550506040517e6ab0b7376ce1675fa83ef07f5d749eac29ceea0a86e6847526fe8298bf629c90610a67908890339089906117a5565b60405180910390a15050610a7a60018055565b9250929050565b610a8961132d565b600283604051610a999190611613565b9081526040519081900360200190206005015460ff1615610aea5760405162461bcd60e51b815260206004820152600b60248201526a506f6f6c2065786973747360a81b6044820152606401610475565b5f82118015610af857505f81115b610b395760405162461bcd60e51b8152602060048201526012602482015271496e76616c696420706172616d657465727360701b6044820152606401610475565b5f670de0b6b3a7640000610b4d838561167f565b610b579190611696565b90506040518061010001604052808481526020018281526020018481526020015f815260200160055481526020016001151581526020014281526020015f815250600285604051610ba89190611613565b908152604080516020928190038301812084518155928401516001840155908301516002830155606083015160038301556080830151600483015560a083015160058301805460ff191691151591909117905560c0830151600683015560e0909201516007909101557fe40c5e449600446069d36f1a2fdb0790411055d81170c76c17a21d162e9e5d3e90610c4090869085906117d2565b60405180910390a150505050565b5f610c576111e9565b5f600285604051610c689190611613565b908152604051908190036020019020600581015490915060ff16610c9e5760405162461bcd60e51b815260040161047590611629565b5f81600301545f03610cd6575082610cbe610cb9828761167f565b6113a8565b9250610ccc6103e884611666565b6003830155610d37565b60018201546002830154610cea908761167f565b610cf49190611696565b905083811115610d165760405162461bcd60e51b8152600401610475906116c8565b60018201546003830154610d2a908761167f565b610d349190611696565b92505b6040516323b872dd60e01b8152336004820152306024820152604481018690527f00000000000000000000000000000000000000000000000000000000000000006001600160a01b0316906323b872dd906064016020604051808303815f875af1158015610da7573d5f5f3e3d5ffd5b505050506040513d601f19601f82011682018060405250810190610dcb91906116f3565b610de75760405162461bcd60e51b815260040161047590611712565b84826001015f828254610dfa91906116b5565b9250508190555080826002015f828254610e1491906116b5565b9250508190555082826003015f828254610e2e91906116b5565b925050819055505f600387604051610e469190611613565b9081526040805160209281900383019020335f90815292528120805490925085918391610e749084906116b5565b9250508190555085816001015f828254610e8e91906116b5565b9250508190555081816002015f828254610ea891906116b5565b90915550506040517f5d048e945e8498e670e84ab4215dfcedf80dafac400ac019fd42d0df11abe8ce90610ee390899033908a90879061176e565b60405180910390a15050506106e060018055565b5f610f006111e9565b82600485604051610f119190611613565b9081526040805160209281900383019020335f90815292529020541015610f715760405162461bcd60e51b8152602060048201526014602482015273496e73756666696369656e742062616c616e636560601b6044820152606401610475565b5f600285604051610f829190611613565b908152604051908190036020019020600581015490915060ff16610fb85760405162461bcd60e51b815260040161047590611629565b5f6127108260040154612710610fce9190611666565b610fd8908761167f565b610fe29190611696565b90505f826001015482610ff5919061167f565b90505f82846002015461100891906116b5565b90506110148183611696565b9450858510156110365760405162461bcd60e51b8152600401610475906116c8565b866004896040516110479190611613565b9081526040805160209281900383019020335f908152925281208054909190611071908490611666565b9250508190555086846002015f82825461108b91906116b5565b9250508190555084846001015f8282546110a59190611666565b9250508190555084846007015f8282546110bf91906116b5565b909155505060405163a9059cbb60e01b8152336004820152602481018690527f00000000000000000000000000000000000000000000000000000000000000006001600160a01b03169063a9059cbb906044016020604051808303815f875af115801561112e573d5f5f3e3d5ffd5b505050506040513d601f19601f8201168201806040525081019061115291906116f3565b61116e5760405162461bcd60e51b815260040161047590611712565b61117788611213565b7f023ca1c33fd0cad21d2c3fc310eff934cff9b64cdcef7ab27273cdd5fecb9f7c883389886040516106cb949392919061176e565b6111b461132d565b6001600160a01b0381166111dd57604051631e4fbdf760e01b81525f6004820152602401610475565b6111e681611359565b50565b60026001540361120c57604051633ee5aeb560e01b815260040160405180910390fd5b6002600155565b5f6002826040516112249190611613565b908152602001604051809103902090505f8160060154426112459190611666565b90508015611328575f611257846106e7565b90505f610e108311611269578261126d565b610e105b9050610e1061127c828461167f565b61128883610e10611666565b6007886040516112989190611613565b9081526020016040518091039020546112b1919061167f565b6112bb91906116b5565b6112c59190611696565b6007866040516112d59190611613565b908152604051908190036020018120919091554260068601557f159e83f4712ba2552e68be9d848e49bf6dd35c24f19564ffd523b6549450a2f49061131d90879085906117d2565b60405180910390a150505b505050565b5f546001600160a01b031633146108005760405163118cdaa760e01b8152336004820152602401610475565b5f80546001600160a01b038381166001600160a01b0319831681178455604051919092169283917f8be0079c531659141344cd1fd0a4f28419497f9722a3daafe3b4186f6b6457e09190a35050565b5f8060026113b78460016116b5565b6113c19190611696565b90508291505b818110156113fa579050806002816113df8186611696565b6113e991906116b5565b6113f39190611696565b90506113c7565b50919050565b634e487b7160e01b5f52604160045260245ffd5b5f82601f830112611423575f5ffd5b813567ffffffffffffffff81111561143d5761143d611400565b604051601f8201601f19908116603f0116810167ffffffffffffffff8111828210171561146c5761146c611400565b604052818152838201602001851015611483575f5ffd5b816020850160208301375f918101602001919091529392505050565b80356001600160a01b03811681146114b5575f5ffd5b919050565b5f5f604083850312156114cb575f5ffd5b823567ffffffffffffffff8111156114e1575f5ffd5b6114ed85828601611414565b9250506114fc6020840161149f565b90509250929050565b5f60208284031215611515575f5ffd5b813567ffffffffffffffff81111561152b575f5ffd5b61153784828501611414565b949350505050565b5f5f5f60608486031215611551575f5ffd5b833567ffffffffffffffff811115611567575f5ffd5b61157386828701611414565b9660208601359650604090950135949350505050565b5f5f5f5f6080858703121561159c575f5ffd5b5050823594602084013594506040840135936060013592509050565b5f5f604083850312156115c9575f5ffd5b823567ffffffffffffffff8111156115df575f5ffd5b6115eb85828601611414565b95602094909401359450505050565b5f6020828403121561160a575f5ffd5b6106e08261149f565b5f82518060208501845e5f920191825250919050565b6020808252600f908201526e506f6f6c206e6f742061637469766560881b604082015260600190565b634e487b7160e01b5f52601160045260245ffd5b8181038181111561167957611679611652565b92915050565b808202811582820484141761167957611679611652565b5f826116b057634e487b7160e01b5f52601260045260245ffd5b500490565b8082018082111561167957611679611652565b60208082526011908201527014db1a5c1c1859d948195e18d959591959607a1b604082015260600190565b5f60208284031215611703575f5ffd5b815180151581146106e0575f5ffd5b6020808252601490820152731554d110c81d1c985b9cd9995c8819985a5b195960621b604082015260600190565b5f81518084528060208401602086015e5f602082860101526020601f19601f83011685010191505092915050565b608081525f6117806080830187611740565b6001600160a01b03959095166020830152506040810192909252606090910152919050565b606081525f6117b76060830186611740565b6001600160a01b039490941660208301525060400152919050565b604081525f6117e46040830185611740565b9050826020830152939250505056fea264697066735822122076ace3ecb2369f08e3002e5eab04fffe825c8ecdbf189a1b18702d5ec2083b2464736f6c634300081b0033",
  "linkReferences": {},
  "deployedLinkReferences": {}
}