{
  "_format": "hh-sol-artifact-1",
  "contractName": "LinguaNetCore",
  "sourceName": "contracts/LinguaNetCore.sol",
  "abi": [
    {
      "inputs": [
        {
          "internalType": "address",
          "name": "_usdcToken",
          "type": "address"
        }
      ],
      "stateMutability": "nonpayable",
      "type": "constructor"
    },
    {
      "inputs": [
        {
          "internalType": "address",
          "name": "owner",
          "type": "address"
        }
      ],
      "name": "OwnableInvalidOwner",
      "type": "error"
    },
    {
      "inputs": [
        {
          "internalType": "address",
          "name": "account",
          "type": "address"
        }
      ],
      "name": "OwnableUnauthorizedAccount",
      "type": "error"
    },
    {
      "inputs": [],
      "name": "ReentrancyGuardReentrantCall",
      "type": "error"
    },
    {
      "anonymous": false,
      "inputs": [
        {
          "indexed": true,
          "internalType": "address",
          "name": "contributor",
          "type": "address"
        },
        {
          "indexed": false,
          "internalType": "string",
          "name": "language",
          "type": "string"
        },
        {
          "indexed": false,
          "internalType": "string",
          "name": "cid",
          "type": "string"
        },
        {
          "indexed": false,
          "internalType": "uint256",
          "name": "reward",
          "type": "uint256"
        }
      ],
      "name": "AudioSubmitted",
      "type": "event"
    },
    {
      "anonymous": false,
      "inputs": [
        {
          "indexed": true,
          "internalType": "address",
          "name": "validator",
          "type": "address"
        },
        {
          "indexed": false,
          "internalType": "string",
          "name": "cid",
          "type": "string"
        },
        {
          "indexed": false,
          "internalType": "bool",
          "name": "isValid",
          "type": "bool"
        },
        {
          "indexed": false,
          "internalType": "uint256",
          "name": "reward",
          "type": "uint256"
        }
      ],
      "name": "AudioValidated",
      "type": "event"
    },
    {
      "anonymous": false,
      "inputs": [
        {
          "indexed": true,
          "internalType": "address",
          "name": "buyer",
          "type": "address"
        },
        {
          "indexed": false,
          "internalType": "string",
          "name": "language",
          "type": "string"
        },
        {
          "indexed": false,
          "internalType": "uint256",
          "name": "amount",
          "type": "uint256"
        }
      ],
      "name": "DatasetPurchased",
      "type": "event"
    },
    {
      "anonymous": false,
      "inputs": [
        {
          "indexed": true,
          "internalType": "address",
          "name": "previousOwner",
          "type": "address"
        },
        {
          "indexed": true,
          "internalType": "address",
          "name": "newOwner",
          "type": "address"
        }
      ],
      "name": "OwnershipTransferred",
      "type": "event"
    },
    {
      "anonymous": false,
      "inputs": [
        {
          "indexed": true,
          "internalType": "address",
          "name": "user",
          "type": "address"
        },
        {
          "indexed": false,
          "internalType": "uint256",
          "name": "amount",
          "type": "uint256"
        },
        {
          "indexed": false,
          "internalType": "string",
          "name": "phoneNumber",
          "type": "string"
        },
        {
          "indexed": false,
          "internalType": "string",
          "name": "provider",
          "type": "string"
        }
      ],
      "name": "WithdrawalToMobileMoney",
      "type": "event"
    },
    {
      "inputs": [],
      "name": "MIN_AUDIO_DURATION",
      "outputs": [
        {
          "internalType": "uint256",
          "name": "",
          "type": "uint256"
        }
      ],
      "stateMutability": "view",
      "type": "function"
    },
    {
      "inputs": [],
      "name": "PLATFORM_FEE_PERCENT",
      "outputs": [
        {
          "internalType": "uint256",
          "name": "",
          "type": "uint256"
        }
      ],
      "stateMutability": "view",
      "type": "function"
    },
    {
      "inputs": [],
      "name": "SUBMISSION_REWARD",
      "outputs": [
        {
          "internalType": "uint256",
          "name": "",
          "type": "uint256"
        }
      ],
      "stateMutability": "view",
      "type": "function"
    },
    {
      "inputs": [],
      "name": "VALIDATION_REWARD",
      "outputs": [
        {
          "internalType": "uint256",
          "name": "",
          "type": "uint256"
        }
      ],
      "stateMutability": "view",
      "type": "function"
    },
    {
      "inputs": [
        {
          "internalType": "string",
          "name": "",
          "type": "string"
        }
      ],
      "name": "audioSubmissions",
      "outputs": [
        {
          "internalType": "address",
          "name": "contributor",
          "type": "address"
        },
        {
          "internalType": "string",
          "name": "language",
          "type": "string"
        },
        {
          "internalType": "string",
          "name": "cid",
          "type": "string"
        },
        {
          "internalType": "uint256",
          "name": "duration",
          "type": "uint256"
        },
        {
          "internalType": "uint256",
          "name": "timestamp",
          "type": "uint256"
        },
        {
          "internalType": "bool",
          "name": "validated",
          "type": "bool"
        },
        {
          "internalType": "uint256",
          "name": "quality",
          "type": "uint256"
        }
      ],
      "stateMutability": "view",
      "type": "function"
    },
    {
      "inputs": [
        {
          "internalType": "string",
          "name": "_language",
          "type": "string"
        }
      ],
      "name": "calculateDatasetPrice",
      "outputs": [
        {
          "internalType": "uint256",
          "name": "",
          "type": "uint256"
        }
      ],
      "stateMutability": "view",
      "type": "function"
    },
    {
      "inputs": [
        {
          "internalType": "address",
          "name": "",
          "type": "address"
        }
      ],
      "name": "contributors",
      "outputs": [
        {
          "internalType": "uint256",
          "name": "submissions",
          "type": "uint256"
        },
        {
          "internalType": "uint256",
          "name": "validations",
          "type": "uint256"
        },
        {
          "internalType": "uint256",
          "name": "earnings",
          "type": "uint256"
        },
        {
          "internalType": "uint256",
          "name": "reputation",
          "type": "uint256"
        },
        {
          "internalType": "string",
          "name": "ensName",
          "type": "string"
        },
        {
          "internalType": "bool",
          "name": "isValidator",
          "type": "bool"
        }
      ],
      "stateMutability": "view",
      "type": "function"
    },
    {
      "inputs": [
        {
          "internalType": "address",
          "name": "_contributor",
          "type": "address"
        }
      ],
      "name": "getContributorStats",
      "outputs": [
        {
          "internalType": "uint256",
          "name": "submissions",
          "type": "uint256"
        },
        {
          "internalType": "uint256",
          "name": "earnings",
          "type": "uint256"
        },
        {
          "internalType": "uint256",
          "name": "reputation",
          "type": "uint256"
        }
      ],
      "stateMutability": "view",
      "type": "function"
    },
    {
      "inputs": [
        {
          "internalType": "string",
          "name": "_language",
          "type": "string"
        }
      ],
      "name": "getLanguageStats",
      "outputs": [
        {
          "internalType": "uint256",
          "name": "clips",
          "type": "uint256"
        },
        {
          "internalType": "uint256",
          "name": "duration",
          "type": "uint256"
        },
        {
          "internalType": "uint256",
          "name": "contributorCount",
          "type": "uint256"
        },
        {
          "internalType": "uint256",
          "name": "price",
          "type": "uint256"
        }
      ],
      "stateMutability": "view",
      "type": "function"
    },
    {
      "inputs": [
        {
          "internalType": "string",
          "name": "_language",
          "type": "string"
        }
      ],
      "name": "isLanguageSupported",
      "outputs": [
        {
          "internalType": "bool",
          "name": "",
          "type": "bool"
        }
      ],
      "stateMutability": "view",
      "type": "function"
    },
    {
      "inputs": [
        {
          "internalType": "string",
          "name": "",
          "type": "string"
        }
      ],
      "name": "languages",
      "outputs": [
        {
          "internalType": "uint256",
          "name": "totalClips",
          "type": "uint256"
        },
        {
          "internalType": "uint256",
          "name": "totalDuration",
          "type": "uint256"
        },
        {
          "internalType": "uint256",
          "name": "totalContributors",
          "type": "uint256"
        },
        {
          "internalType": "uint256",
          "name": "basePrice",
          "type": "uint256"
        }
      ],
      "stateMutability": "view",
      "type": "function"
    },
    {
      "inputs": [],
      "name": "owner",
      "outputs": [
        {
          "internalType": "address",
          "name": "",
          "type": "address"
        }
      ],
      "stateMutability": "view",
      "type": "function"
    },
    {
      "inputs": [
        {
          "internalType": "address",
          "name": "",
          "type": "address"
        }
      ],
      "name": "pendingWithdrawals",
      "outputs": [
        {
          "internalType": "uint256",
          "name": "",
          "type": "uint256"
        }
      ],
      "stateMutability": "view",
      "type": "function"
    },
    {
      "inputs": [
        {
          "internalType": "string",
          "name": "_language",
          "type": "string"
        }
      ],
      "name": "purchaseDataset",
      "outputs": [],
      "stateMutability": "payable",
      "type": "function"
    },
    {
      "inputs": [],
      "name": "registerValidator",
      "outputs": [],
      "stateMutability": "nonpayable",
      "type": "function"
    },
    {
      "inputs": [],
      "name": "renounceOwnership",
      "outputs": [],
      "stateMutability": "nonpayable",
      "type": "function"
    },
    {
      "inputs": [
        {
          "internalType": "string",
          "name": "_language",
          "type": "string"
        },
        {
          "internalType": "string",
          "name": "_cid",
          "type": "string"
        },
        {
          "internalType": "uint256",
          "name": "_duration",
          "type": "uint256"
        }
      ],
      "name": "submitAudio",
      "outputs": [],
      "stateMutability": "nonpayable",
      "type": "function"
    },
    {
      "inputs": [
        {
          "internalType": "uint256",
          "name": "",
          "type": "uint256"
        }
      ],
      "name": "supportedLanguages",
      "outputs": [
        {
          "internalType": "string",
          "name": "",
          "type": "string"
        }
      ],
      "stateMutability": "view",
      "type": "function"
    },
    {
      "inputs": [
        {
          "internalType": "address",
          "name": "newOwner",
          "type": "address"
        }
      ],
      "name": "transferOwnership",
      "outputs": [],
      "stateMutability": "nonpayable",
      "type": "function"
    },
    {
      "inputs": [],
      "name": "usdcToken",
      "outputs": [
        {
          "internalType": "contract IERC20",
          "name": "",
          "type": "address"
        }
      ],
      "stateMutability": "view",
      "type": "function"
    },
    {
      "inputs": [
        {
          "internalType": "string",
          "name": "_cid",
          "type": "string"
        },
        {
          "internalType": "bool",
          "name": "_isValid",
          "type": "bool"
        }
      ],
      "name": "validateAudio",
      "outputs": [],
      "stateMutability": "nonpayable",
      "type": "function"
    },
    {
      "inputs": [
        {
          "internalType": "uint256",
          "name": "",
          "type": "uint256"
        }
      ],
      "name": "validators",
      "outputs": [
        {
          "internalType": "address",
          "name": "",
          "type": "address"
        }
      ],
      "stateMutability": "view",
      "type": "function"
    },
    {
      "inputs": [],
      "name": "withdrawEarnings",
      "outputs": [],
      "stateMutability": "nonpayable",
      "type": "function"
    },
    {
      "inputs": [
        {
          "internalType": "string",
          "name": "_phoneNumber",
          "type": "string"
        },
        {
          "internalType": "string",
          "name": "_provider",
          "type": "string"
        }
      ],
      "name": "withdrawToMobileMoney",
      "outputs": [],
      "stateMutability": "nonpayable",
      "type": "function"
    }
  ],
  "bytecode": "0x60a060405234801561000f575f5ffd5b5060405161235738038061235783398101604081905261002e91610424565b338061005357604051631e4fbdf760e01b81525f600482015260240160405180910390fd5b61005c816103d5565b5060018080556001600160a01b0382166080526006805491820181555f5260408051808201909152600381526274776960e81b60208201525f5160206123375f395f51905f52909101906100b090826104e9565b50600680546001810182555f9190915260408051808201909152600781526673776168696c6960c81b60208201525f5160206123375f395f51905f52909101906100fa90826104e9565b50600680546001810182555f8290526040805180820190915291825265796f7275626160d01b60208301525f5160206123375f395f51905f52019061013f90826104e9565b50600680546001810182555f91909152604080518082019091526005815264686175736160d81b60208201525f5160206123375f395f51905f529091019061018790826104e9565b50600680546001810182555f91909152604080518082019091526007815266616d686172696360c81b60208201525f5160206123375f395f51905f52909101906101d190826104e9565b50600680546001810182555f919091526040805180820190915260048152637a756c7560e01b60208201525f5160206123375f395f51905f529091019061021890826104e9565b50600680546001810182555f919091526040805180820190915260048152636967626f60e01b60208201525f5160206123375f395f51905f529091019061025f90826104e9565b50600680546001810182555f919091526040805180820190915260058152643bb7b637b360d91b60208201525f5160206123375f395f51905f52909101906102a790826104e9565b50600680546001810182555f919091526040805180820190915260078152666c696e67616c6160c81b60208201525f5160206123375f395f51905f52909101906102f190826104e9565b50600680546001810182555f919091526040805180820190915260078152666c7567616e646160c81b60208201525f5160206123375f395f51905f529091019061033b90826104e9565b50600680546001810182555f9190915260408051808201909152600581526473686f6e6160d81b60208201525f5160206123375f395f51905f529091019061038390826104e9565b50600680546001810182555f9190915260408051808201909152600881526774696772696e796160c01b60208201525f5160206123375f395f51905f52909101906103ce90826104e9565b50506105a3565b5f80546001600160a01b038381166001600160a01b0319831681178455604051919092169283917f8be0079c531659141344cd1fd0a4f28419497f9722a3daafe3b4186f6b6457e09190a35050565b5f60208284031215610434575f5ffd5b81516001600160a01b038116811461044a575f5ffd5b9392505050565b634e487b7160e01b5f52604160045260245ffd5b600181811c9082168061047957607f821691505b60208210810361049757634e487b7160e01b5f52602260045260245ffd5b50919050565b601f8211156104e457805f5260205f20601f840160051c810160208510156104c25750805b601f840160051c820191505b818110156104e1575f81556001016104ce565b50505b505050565b81516001600160401b0381111561050257610502610451565b610516816105108454610465565b8461049d565b6020601f821160018114610548575f83156105315750848201515b5f19600385901b1c1916600184901b1784556104e1565b5f84815260208120601f198516915b828110156105775787850151825560209485019460019092019101610557565b508482101561059457868401515f19600387901b60f8161c191681555b50505050600190811b01905550565b608051611d676105d05f395f81816101850152818161072801528181610c1501526114910152611d675ff3fe608060405260043610610147575f3560e01c80638c5e44c1116100b3578063d2d0b7b41161006d578063d2d0b7b414610417578063d32b6dd91461042b578063f2fde38b1461044a578063f3f4370314610469578063f905f07c14610494578063fa3b55d9146104b3575f5ffd5b80638c5e44c1146103485780638da5cb5b14610382578063ac9fa9b71461039e578063b73c6ce9146103d0578063b93852a3146103e4578063bcc6587f14610403575f5ffd5b80634f5b071a116101045780634f5b071a1461027d578063560d52d41461029257806363da0e2e146102a657806364e42168146102d2578063715018a6146102e85780638b228006146102fc575f5ffd5b806309157e021461014b57806311eac855146101745780631f6d4942146101bf57806335aa2e44146101f057806346b721031461020f57806348a570c61461023e575b5f5ffd5b348015610156575f5ffd5b50610161622dc6c081565b6040519081526020015b60405180910390f35b34801561017f575f5ffd5b506101a77f000000000000000000000000000000000000000000000000000000000000000081565b6040516001600160a01b03909116815260200161016b565b3480156101ca575f5ffd5b506101de6101d9366004611630565b6104d2565b60405161016b9695949392919061168b565b3480156101fb575f5ffd5b506101a761020a3660046116ca565b610593565b34801561021a575f5ffd5b5061022e610229366004611726565b6105bb565b604051901515815260200161016b565b348015610249575f5ffd5b5061025d610258366004611726565b610632565b60408051948552602085019390935291830152606082015260800161016b565b61029061028b366004611726565b610682565b005b34801561029d575f5ffd5b50610161600a81565b3480156102b1575f5ffd5b506102c56102c03660046116ca565b610854565b60405161016b9190611765565b3480156102dd575f5ffd5b506101616207a12081565b3480156102f3575f5ffd5b506102906108fa565b348015610307575f5ffd5b5061025d61031636600461178b565b805160208183018101805160048252928201919093012091528054600182015460028301546003909301549192909184565b348015610353575f5ffd5b50610367610362366004611630565b61090d565b6040805193845260208401929092529082015260600161016b565b34801561038d575f5ffd5b505f546001600160a01b03166101a7565b3480156103a9575f5ffd5b506103bd6103b836600461178b565b610a21565b60405161016b979695949392919061183e565b3480156103db575f5ffd5b50610290610b84565b3480156103ef575f5ffd5b506102906103fe36600461189a565b610cc7565b34801561040e575f5ffd5b5061029061102b565b348015610422575f5ffd5b50610161601e81565b348015610436575f5ffd5b5061029061044536600461191a565b611142565b348015610455575f5ffd5b50610290610464366004611630565b61136a565b348015610474575f5ffd5b50610161610483366004611630565b60056020525f908152604090205481565b34801561049f575f5ffd5b506101616104ae366004611726565b6113a7565b3480156104be575f5ffd5b506102906104cd36600461196d565b6113e4565b6003602052805f5260405f205f91509050805f015490806001015490806002015490806003015490806004018054610509906119d9565b80601f0160208091040260200160405190810160405280929190818152602001828054610535906119d9565b80156105805780601f1061055757610100808354040283529160200191610580565b820191905f5260205f20905b81548152906001019060200180831161056357829003601f168201915b5050506005909301549192505060ff1686565b600781815481106105a2575f80fd5b5f918252602090912001546001600160a01b0316905081565b5f805b6006548110156106275783836040516105d8929190611a11565b6040518091039020600682815481106105f3576105f3611a20565b905f5260205f20016040516106089190611a34565b60405180910390200361061f57600191505061062c565b6001016105be565b505f90505b92915050565b5f5f5f5f5f60048787604051610649929190611a11565b90815260200160405180910390209050805f0154816001015482600201546106718a8a6113a7565b929a91995097509095509350505050565b61068a61158b565b5f6004838360405161069d929190611a11565b908152602001604051809103902090505f815f0154116106f85760405162461bcd60e51b81526020600482015260116024820152704e6f206461746120617661696c61626c6560781b60448201526064015b60405180910390fd5b5f61070384846113a7565b6040516323b872dd60e01b8152336004820152306024820152604481018290529091507f00000000000000000000000000000000000000000000000000000000000000006001600160a01b0316906323b872dd906064016020604051808303815f875af1158015610776573d5f5f3e3d5ffd5b505050506040513d601f19601f8201168201806040525081019061079a9190611aa5565b6107d75760405162461bcd60e51b815260206004820152600e60248201526d14185e5b595b9d0819985a5b195960921b60448201526064016106ef565b5f60646107e5600a84611ad4565b6107ef9190611aeb565b90505f6107fc8284611b0a565b9050336001600160a01b03167f3640b6afdf299c48d886bcf87656143ec744560d1526e9ac7b1dfe08b2cc679087878660405161083b93929190611b45565b60405180910390a25050505061085060018055565b5050565b60068181548110610863575f80fd5b905f5260205f20015f91509050805461087b906119d9565b80601f01602080910402602001604051908101604052809291908181526020018280546108a7906119d9565b80156108f25780601f106108c9576101008083540402835291602001916108f2565b820191905f5260205f20905b8154815290600101906020018083116108d557829003601f168201915b505050505081565b6109026115b5565b61090b5f6115e1565b565b5f5f5f5f60035f866001600160a01b03166001600160a01b031681526020019081526020015f206040518060c00160405290815f8201548152602001600182015481526020016002820154815260200160038201548152602001600482018054610976906119d9565b80601f01602080910402602001604051908101604052809291908181526020018280546109a2906119d9565b80156109ed5780601f106109c4576101008083540402835291602001916109ed565b820191905f5260205f20905b8154815290600101906020018083116109d057829003601f168201915b50505091835250506005919091015460ff161515602090910152805160408201516060909201519097919650945092505050565b8051602081830181018051600282529282019190930120915280546001820180546001600160a01b039092169291610a58906119d9565b80601f0160208091040260200160405190810160405280929190818152602001828054610a84906119d9565b8015610acf5780601f10610aa657610100808354040283529160200191610acf565b820191905f5260205f20905b815481529060010190602001808311610ab257829003601f168201915b505050505090806002018054610ae4906119d9565b80601f0160208091040260200160405190810160405280929190818152602001828054610b10906119d9565b8015610b5b5780601f10610b3257610100808354040283529160200191610b5b565b820191905f5260205f20905b815481529060010190602001808311610b3e57829003601f168201915b5050506003840154600485015460058601546006909601549495919490935060ff909116915087565b610b8c61158b565b335f9081526005602052604090205480610bde5760405162461bcd60e51b81526020600482015260136024820152724e6f2070656e64696e67206561726e696e677360681b60448201526064016106ef565b335f81815260056020526040808220919091555163a9059cbb60e01b81526004810191909152602481018290526001600160a01b037f0000000000000000000000000000000000000000000000000000000000000000169063a9059cbb906044016020604051808303815f875af1158015610c5b573d5f5f3e3d5ffd5b505050506040513d601f19601f82011682018060405250810190610c7f9190611aa5565b610cbd5760405162461bcd60e51b815260206004820152600f60248201526e151c985b9cd9995c8819985a5b1959608a1b60448201526064016106ef565b5061090b60018055565b601e811015610d0a5760405162461bcd60e51b815260206004820152600f60248201526e105d591a5bc81d1bdbc81cda1bdc9d608a1b60448201526064016106ef565b81610d455760405162461bcd60e51b815260206004820152600b60248201526a125b9d985b1a590810d25160aa1b60448201526064016106ef565b610d4f85856105bb565b610d945760405162461bcd60e51b815260206004820152601660248201527513185b99dd5859d9481b9bdd081cdd5c1c1bdc9d195960521b60448201526064016106ef565b6040518060e00160405280336001600160a01b0316815260200186868080601f0160208091040260200160405190810160405280939291908181526020018383808284375f92019190915250505090825250604080516020601f8701819004810282018101909252858152918101919086908690819084018382808284375f92018290525093855250505060208201849052426040808401919091526060830182905260809092015251600290610e4e9086908690611a11565b90815260405160209181900382019020825181546001600160a01b0319166001600160a01b03909116178155908201516001820190610e8d9082611bb4565b5060408201516002820190610ea29082611bb4565b5060608201516003828101919091556080830151600483015560a083015160058301805460ff191691151591909117905560c090920151600690910155335f90815260209190915260408120805490918290610efd83611c6f565b91905055505f60048787604051610f15929190611a11565b9081526040519081900360200190208054909150815f610f3483611c6f565b919050555082816001015f828254610f4c9190611c87565b9091555050335f90815260048201602052604090205460ff16610f9a57335f9081526004820160205260408120805460ff1916600117905560028201805491610f9483611c6f565b91905055505b335f9081526005602052604081208054622dc6c09290610fbb908490611c87565b92505081905550622dc6c0826002015f828254610fd89190611c87565b909155505060405133907f5a1b9c958403e00bf49e7884a807ff543c062df75186aaf6abc66376154700ab9061101a908a908a908a908a90622dc6c090611c9a565b60405180910390a250505050505050565b335f9081526003602052604090206005015460ff16156110835760405162461bcd60e51b815260206004820152601360248201527220b63932b0b23c9030903b30b634b230ba37b960691b60448201526064016106ef565b335f90815260036020526040902054600a11156110e25760405162461bcd60e51b815260206004820152601960248201527f4e656564203130207375626d697373696f6e732066697273740000000000000060448201526064016106ef565b335f818152600360205260408120600501805460ff191660019081179091556007805491820181559091527fa66cc928b5edb82af9bd49922954155ab7b0942694bea4ce44661d9a8736c6880180546001600160a01b0319169091179055565b335f9081526003602052604090206005015460ff166111955760405162461bcd60e51b815260206004820152600f60248201526e2737ba1030903b30b634b230ba37b960891b60448201526064016106ef565b5f600284846040516111a8929190611a11565b908152604051908190036020019020600581015490915060ff16156112035760405162461bcd60e51b8152602060048201526011602482015270105b1c9958591e481d985b1a59185d1959607a1b60448201526064016106ef565b8054336001600160a01b03909116036112555760405162461bcd60e51b815260206004820152601460248201527343616e6e6f742073656c662d76616c696461746560601b60448201526064016106ef565b60058101805460ff191660011790558161126f575f611272565b605f5b60ff166006820155335f908152600360205260408120600181018054919261129983611c6f565b9091555050335f90815260056020526040812080546207a12092906112bf908490611c87565b925050819055506207a120816002015f8282546112dc9190611c87565b909155505082156113195781546001600160a01b03165f9081526003602081905260408220018054600a9290611313908490611c87565b90915550505b336001600160a01b03167f0d5a4ded9362ff52977f48513675f47094bcc580dda9bc5a451f4f1d1f4665a58686866207a12060405161135b9493929190611cd3565b60405180910390a25050505050565b6113726115b5565b6001600160a01b03811661139b57604051631e4fbdf760e01b81525f60048201526024016106ef565b6113a4816115e1565b50565b5f5f600484846040516113bb929190611a11565b90815260405190819003602001902080549091506113dc90620f4240611ad4565b949350505050565b6113ec61158b565b335f908152600560205260409020548061143e5760405162461bcd60e51b81526020600482015260136024820152724e6f2070656e64696e67206561726e696e677360681b60448201526064016106ef565b335f8181526005602052604080822091909155517fe4f8da7a7cdfb8273258d110233a04d671123bc8cd874e8fd6e2735a5b6608ec906114879084908990899089908990611cf9565b60405180910390a27f00000000000000000000000000000000000000000000000000000000000000006001600160a01b031663a9059cbb6114cf5f546001600160a01b031690565b6040516001600160e01b031960e084901b1681526001600160a01b039091166004820152602481018490526044016020604051808303815f875af1158015611519573d5f5f3e3d5ffd5b505050506040513d601f19601f8201168201806040525081019061153d9190611aa5565b61157b5760405162461bcd60e51b815260206004820152600f60248201526e151c985b9cd9995c8819985a5b1959608a1b60448201526064016106ef565b5061158560018055565b50505050565b6002600154036115ae57604051633ee5aeb560e01b815260040160405180910390fd5b6002600155565b5f546001600160a01b0316331461090b5760405163118cdaa760e01b81523360048201526024016106ef565b5f80546001600160a01b038381166001600160a01b0319831681178455604051919092169283917f8be0079c531659141344cd1fd0a4f28419497f9722a3daafe3b4186f6b6457e09190a35050565b5f60208284031215611640575f5ffd5b81356001600160a01b0381168114611656575f5ffd5b9392505050565b5f81518084528060208401602086015e5f602082860101526020601f19601f83011685010191505092915050565b86815285602082015284604082015283606082015260c060808201525f6116b560c083018561165d565b905082151560a0830152979650505050505050565b5f602082840312156116da575f5ffd5b5035919050565b5f5f83601f8401126116f1575f5ffd5b50813567ffffffffffffffff811115611708575f5ffd5b60208301915083602082850101111561171f575f5ffd5b9250929050565b5f5f60208385031215611737575f5ffd5b823567ffffffffffffffff81111561174d575f5ffd5b611759858286016116e1565b90969095509350505050565b602081525f611656602083018461165d565b634e487b7160e01b5f52604160045260245ffd5b5f6020828403121561179b575f5ffd5b813567ffffffffffffffff8111156117b1575f5ffd5b8201601f810184136117c1575f5ffd5b803567ffffffffffffffff8111156117db576117db611777565b604051601f8201601f19908116603f0116810167ffffffffffffffff8111828210171561180a5761180a611777565b604052818152828201602001861015611821575f5ffd5b816020840160208301375f91810160200191909152949350505050565b6001600160a01b038816815260e0602082018190525f906118619083018961165d565b8281036040840152611873818961165d565b60608401979097525050608081019390935290151560a083015260c0909101529392505050565b5f5f5f5f5f606086880312156118ae575f5ffd5b853567ffffffffffffffff8111156118c4575f5ffd5b6118d0888289016116e1565b909650945050602086013567ffffffffffffffff8111156118ef575f5ffd5b6118fb888289016116e1565b96999598509660400135949350505050565b80151581146113a4575f5ffd5b5f5f5f6040848603121561192c575f5ffd5b833567ffffffffffffffff811115611942575f5ffd5b61194e868287016116e1565b90945092505060208401356119628161190d565b809150509250925092565b5f5f5f5f60408587031215611980575f5ffd5b843567ffffffffffffffff811115611996575f5ffd5b6119a2878288016116e1565b909550935050602085013567ffffffffffffffff8111156119c1575f5ffd5b6119cd878288016116e1565b95989497509550505050565b600181811c908216806119ed57607f821691505b602082108103611a0b57634e487b7160e01b5f52602260045260245ffd5b50919050565b818382375f9101908152919050565b634e487b7160e01b5f52603260045260245ffd5b5f5f8354611a41816119d9565b600182168015611a585760018114611a6d57611a9a565b60ff1983168652811515820286019350611a9a565b865f5260205f205f5b83811015611a9257815488820152600190910190602001611a76565b505081860193505b509195945050505050565b5f60208284031215611ab5575f5ffd5b81516116568161190d565b634e487b7160e01b5f52601160045260245ffd5b808202811582820484141761062c5761062c611ac0565b5f82611b0557634e487b7160e01b5f52601260045260245ffd5b500490565b8181038181111561062c5761062c611ac0565b81835281816020850137505f828201602090810191909152601f909101601f19169091010190565b604081525f611b58604083018587611b1d565b9050826020830152949350505050565b601f821115611baf57805f5260205f20601f840160051c81016020851015611b8d5750805b601f840160051c820191505b81811015611bac575f8155600101611b99565b50505b505050565b815167ffffffffffffffff811115611bce57611bce611777565b611be281611bdc84546119d9565b84611b68565b6020601f821160018114611c14575f8315611bfd5750848201515b5f19600385901b1c1916600184901b178455611bac565b5f84815260208120601f198516915b82811015611c435787850151825560209485019460019092019101611c23565b5084821015611c6057868401515f19600387901b60f8161c191681555b50505050600190811b01905550565b5f60018201611c8057611c80611ac0565b5060010190565b8082018082111561062c5761062c611ac0565b606081525f611cad606083018789611b1d565b8281036020840152611cc0818688611b1d565b9150508260408301529695505050505050565b606081525f611ce6606083018688611b1d565b9315156020830152506040015292915050565b858152606060208201525f611d12606083018688611b1d565b8281036040840152611d25818587611b1d565b9897505050505050505056fea2646970667358221220e01553fea904e60e86675a43d0af09fdb3e52d1ad87fa042087a613ecc5dc37a64736f6c634300081b0033f652222313e28459528d920b65115c16c04f3efc82aaedc97be59f3f377c0d3f",
  "linkReferences": {},
  "deployedLinkReferences": {}
}