{
  "_format": "hh-sol-artifact-1",
  "contractName": "VoiceSharesNFT",
  "sourceName": "contracts/VoiceSharesNFT.sol",
  "abi": [
    {
      "inputs": [
        {
          "internalType": "address",
          "name": "initialOwner",
          "type": "address"
        }
      ],
      "stateMutability": "nonpayable",
      "type": "constructor"
    },
    {
      "inputs": [],
      "name": "ERC721EnumerableForbiddenBatchMint",
      "type": "error"
    },
    {
      "inputs": [
        {
          "internalType": "address",
          "name": "sender",
          "type": "address"
        },
        {
          "internalType": "uint256",
          "name": "tokenId",
          "type": "uint256"
        },
        {
          "internalType": "address",
          "name": "owner",
          "type": "address"
        }
      ],
      "name": "ERC721IncorrectOwner",
      "type": "error"
    },
    {
      "inputs": [
        {
          "internalType": "address",
          "name": "operator",
          "type": "address"
        },
        {
          "internalType": "uint256",
          "name": "tokenId",
          "type": "uint256"
        }
      ],
      "name": "ERC721InsufficientApproval",
      "type": "error"
    },
    {
      "inputs": [
        {
          "internalType": "address",
          "name": "approver",
          "type": "address"
        }
      ],
      "name": "ERC721InvalidApprover",
      "type": "error"
    },
    {
      "inputs": [
        {
          "internalType": "address",
          "name": "operator",
          "type": "address"
        }
      ],
      "name": "ERC721InvalidOperator",
      "type": "error"
    },
    {
      "inputs": [
        {
          "internalType": "address",
          "name": "owner",
          "type": "address"
        }
      ],
      "name": "ERC721InvalidOwner",
      "type": "error"
    },
    {
      "inputs": [
        {
          "internalType": "address",
          "name": "receiver",
          "type": "address"
        }
      ],
      "name": "ERC721InvalidReceiver",
      "type": "error"
    },
    {
      "inputs": [
        {
          "internalType": "address",
          "name": "sender",
          "type": "address"
        }
      ],
      "name": "ERC721InvalidSender",
      "type": "error"
    },
    {
      "inputs": [
        {
          "internalType": "uint256",
          "name": "tokenId",
          "type": "uint256"
        }
      ],
      "name": "ERC721NonexistentToken",
      "type": "error"
    },
    {
      "inputs": [
        {
          "internalType": "address",
          "name": "owner",
          "type": "address"
        },
        {
          "internalType": "uint256",
          "name": "index",
          "type": "uint256"
        }
      ],
      "name": "ERC721OutOfBoundsIndex",
      "type": "error"
    },
    {
      "inputs": [
        {
          "internalType": "address",
          "name": "owner",
          "type": "address"
        }
      ],
      "name": "OwnableInvalidOwner",
      "type": "error"
    },
    {
      "inputs": [
        {
          "internalType": "address",
          "name": "account",
          "type": "address"
        }
      ],
      "name": "OwnableUnauthorizedAccount",
      "type": "error"
    },
    {
      "anonymous": false,
      "inputs": [
        {
          "indexed": true,
          "internalType": "address",
          "name": "owner",
          "type": "address"
        },
        {
          "indexed": true,
          "internalType": "address",
          "name": "approved",
          "type": "address"
        },
        {
          "indexed": true,
          "internalType": "uint256",
          "name": "tokenId",
          "type": "uint256"
        }
      ],
      "name": "Approval",
      "type": "event"
    },
    {
      "anonymous": false,
      "inputs": [
        {
          "indexed": true,
          "internalType": "address",
          "name": "owner",
          "type": "address"
        },
        {
          "indexed": true,
          "internalType": "address",
          "name": "operator",
          "type": "address"
        },
        {
          "indexed": false,
          "internalType": "bool",
          "name": "approved",
          "type": "bool"
        }
      ],
      "name": "ApprovalForAll",
      "type": "event"
    },
    {
      "anonymous": false,
      "inputs": [
        {
          "indexed": false,
          "internalType": "uint256",
          "name": "_fromTokenId",
          "type": "uint256"
        },
        {
          "indexed": false,
          "internalType": "uint256",
          "name": "_toTokenId",
          "type": "uint256"
        }
      ],
      "name": "BatchMetadataUpdate",
      "type": "event"
    },
    {
      "anonymous": false,
      "inputs": [
        {
          "indexed": false,
          "internalType": "uint256",
          "name": "_tokenId",
          "type": "uint256"
        }
      ],
      "name": "MetadataUpdate",
      "type": "event"
    },
    {
      "anonymous": false,
      "inputs": [
        {
          "indexed": true,
          "internalType": "address",
          "name": "previousOwner",
          "type": "address"
        },
        {
          "indexed": true,
          "internalType": "address",
          "name": "newOwner",
          "type": "address"
        }
      ],
      "name": "OwnershipTransferred",
      "type": "event"
    },
    {
      "anonymous": false,
      "inputs": [
        {
          "indexed": true,
          "internalType": "uint256",
          "name": "tokenId",
          "type": "uint256"
        },
        {
          "indexed": false,
          "internalType": "uint256",
          "name": "amount",
          "type": "uint256"
        }
      ],
      "name": "RevenueDistributed",
      "type": "event"
    },
    {
      "anonymous": false,
      "inputs": [
        {
          "indexed": true,
          "internalType": "address",
          "name": "contributor",
          "type": "address"
        },
        {
          "indexed": false,
          "internalType": "uint256",
          "name": "newTier",
          "type": "uint256"
        }
      ],
      "name": "TierUpgraded",
      "type": "event"
    },
    {
      "anonymous": false,
      "inputs": [
        {
          "indexed": true,
          "internalType": "address",
          "name": "from",
          "type": "address"
        },
        {
          "indexed": true,
          "internalType": "address",
          "name": "to",
          "type": "address"
        },
        {
          "indexed": true,
          "internalType": "uint256",
          "name": "tokenId",
          "type": "uint256"
        }
      ],
      "name": "Transfer",
      "type": "event"
    },
    {
      "anonymous": false,
      "inputs": [
        {
          "indexed": true,
          "internalType": "uint256",
          "name": "tokenId",
          "type": "uint256"
        },
        {
          "indexed": true,
          "internalType": "address",
          "name": "validator",
          "type": "address"
        },
        {
          "indexed": false,
          "internalType": "uint256",
          "name": "qualityScore",
          "type": "uint256"
        }
      ],
      "name": "ValidationCompleted",
      "type": "event"
    },
    {
      "anonymous": false,
      "inputs": [
        {
          "indexed": true,
          "internalType": "uint256",
          "name": "tokenId",
          "type": "uint256"
        },
        {
          "indexed": true,
          "internalType": "address",
          "name": "contributor",
          "type": "address"
        },
        {
          "indexed": false,
          "internalType": "string",
          "name": "language",
          "type": "string"
        },
        {
          "indexed": false,
          "internalType": "uint256",
          "name": "rarityTier",
          "type": "uint256"
        }
      ],
      "name": "VoiceShareMinted",
      "type": "event"
    },
    {
      "inputs": [
        {
          "internalType": "address",
          "name": "to",
          "type": "address"
        },
        {
          "internalType": "uint256",
          "name": "tokenId",
          "type": "uint256"
        }
      ],
      "name": "approve",
      "outputs": [],
      "stateMutability": "nonpayable",
      "type": "function"
    },
    {
      "inputs": [
        {
          "internalType": "address",
          "name": "owner",
          "type": "address"
        }
      ],
      "name": "balanceOf",
      "outputs": [
        {
          "internalType": "uint256",
          "name": "",
          "type": "uint256"
        }
      ],
      "stateMutability": "view",
      "type": "function"
    },
    {
      "inputs": [
        {
          "internalType": "uint256",
          "name": "tokenId",
          "type": "uint256"
        }
      ],
      "name": "claimRevenue",
      "outputs": [],
      "stateMutability": "nonpayable",
      "type": "function"
    },
    {
      "inputs": [
        {
          "internalType": "address",
          "name": "",
          "type": "address"
        }
      ],
      "name": "contributionCount",
      "outputs": [
        {
          "internalType": "uint256",
          "name": "",
          "type": "uint256"
        }
      ],
      "stateMutability": "view",
      "type": "function"
    },
    {
      "inputs": [
        {
          "internalType": "address",
          "name": "",
          "type": "address"
        }
      ],
      "name": "contributorTier",
      "outputs": [
        {
          "internalType": "uint256",
          "name": "",
          "type": "uint256"
        }
      ],
      "stateMutability": "view",
      "type": "function"
    },
    {
      "inputs": [
        {
          "internalType": "uint256[]",
          "name": "tokenIds",
          "type": "uint256[]"
        },
        {
          "internalType": "uint256[]",
          "name": "amounts",
          "type": "uint256[]"
        }
      ],
      "name": "distributeRevenue",
      "outputs": [],
      "stateMutability": "nonpayable",
      "type": "function"
    },
    {
      "inputs": [
        {
          "internalType": "uint256",
          "name": "tokenId",
          "type": "uint256"
        }
      ],
      "name": "getApproved",
      "outputs": [
        {
          "internalType": "address",
          "name": "",
          "type": "address"
        }
      ],
      "stateMutability": "view",
      "type": "function"
    },
    {
      "inputs": [
        {
          "internalType": "string",
          "name": "language",
          "type": "string"
        }
      ],
      "name": "getTokensByLanguage",
      "outputs": [
        {
          "internalType": "uint256[]",
          "name": "",
          "type": "uint256[]"
        }
      ],
      "stateMutability": "view",
      "type": "function"
    },
    {
      "inputs": [
        {
          "internalType": "address",
          "name": "owner",
          "type": "address"
        }
      ],
      "name": "getTokensByOwner",
      "outputs": [
        {
          "internalType": "uint256[]",
          "name": "",
          "type": "uint256[]"
        }
      ],
      "stateMutability": "view",
      "type": "function"
    },
    {
      "inputs": [
        {
          "internalType": "address",
          "name": "owner",
          "type": "address"
        },
        {
          "internalType": "address",
          "name": "operator",
          "type": "address"
        }
      ],
      "name": "isApprovedForAll",
      "outputs": [
        {
          "internalType": "bool",
          "name": "",
          "type": "bool"
        }
      ],
      "stateMutability": "view",
      "type": "function"
    },
    {
      "inputs": [
        {
          "internalType": "string",
          "name": "",
          "type": "string"
        }
      ],
      "name": "languageContributions",
      "outputs": [
        {
          "internalType": "uint256",
          "name": "",
          "type": "uint256"
        }
      ],
      "stateMutability": "view",
      "type": "function"
    },
    {
      "inputs": [
        {
          "internalType": "string",
          "name": "",
          "type": "string"
        }
      ],
      "name": "languageRevenue",
      "outputs": [
        {
          "internalType": "uint256",
          "name": "",
          "type": "uint256"
        }
      ],
      "stateMutability": "view",
      "type": "function"
    },
    {
      "inputs": [
        {
          "internalType": "address",
          "name": "contributor",
          "type": "address"
        },
        {
          "internalType": "string",
          "name": "language",
          "type": "string"
        },
        {
          "internalType": "string",
          "name": "audioIPFSHash",
          "type": "string"
        },
        {
          "internalType": "uint256",
          "name": "duration",
          "type": "uint256"
        },
        {
          "internalType": "uint256",
          "name": "qualityScore",
          "type": "uint256"
        },
        {
          "internalType": "uint256",
          "name": "rarityTier",
          "type": "uint256"
        }
      ],
      "name": "mintVoiceShare",
      "outputs": [
        {
          "internalType": "uint256",
          "name": "",
          "type": "uint256"
        }
      ],
      "stateMutability": "nonpayable",
      "type": "function"
    },
    {
      "inputs": [],
      "name": "name",
      "outputs": [
        {
          "internalType": "string",
          "name": "",
          "type": "string"
        }
      ],
      "stateMutability": "view",
      "type": "function"
    },
    {
      "inputs": [],
      "name": "owner",
      "outputs": [
        {
          "internalType": "address",
          "name": "",
          "type": "address"
        }
      ],
      "stateMutability": "view",
      "type": "function"
    },
    {
      "inputs": [
        {
          "internalType": "uint256",
          "name": "tokenId",
          "type": "uint256"
        }
      ],
      "name": "ownerOf",
      "outputs": [
        {
          "internalType": "address",
          "name": "",
          "type": "address"
        }
      ],
      "stateMutability": "view",
      "type": "function"
    },
    {
      "inputs": [
        {
          "internalType": "uint256",
          "name": "",
          "type": "uint256"
        }
      ],
      "name": "pendingRevenue",
      "outputs": [
        {
          "internalType": "uint256",
          "name": "",
          "type": "uint256"
        }
      ],
      "stateMutability": "view",
      "type": "function"
    },
    {
      "inputs": [],
      "name": "renounceOwnership",
      "outputs": [],
      "stateMutability": "nonpayable",
      "type": "function"
    },
    {
      "inputs": [
        {
          "internalType": "address",
          "name": "from",
          "type": "address"
        },
        {
          "internalType": "address",
          "name": "to",
          "type": "address"
        },
        {
          "internalType": "uint256",
          "name": "tokenId",
          "type": "uint256"
        }
      ],
      "name": "safeTransferFrom",
      "outputs": [],
      "stateMutability": "nonpayable",
      "type": "function"
    },
    {
      "inputs": [
        {
          "internalType": "address",
          "name": "from",
          "type": "address"
        },
        {
          "internalType": "address",
          "name": "to",
          "type": "address"
        },
        {
          "internalType": "uint256",
          "name": "tokenId",
          "type": "uint256"
        },
        {
          "internalType": "bytes",
          "name": "data",
          "type": "bytes"
        }
      ],
      "name": "safeTransferFrom",
      "outputs": [],
      "stateMutability": "nonpayable",
      "type": "function"
    },
    {
      "inputs": [
        {
          "internalType": "address",
          "name": "operator",
          "type": "address"
        },
        {
          "internalType": "bool",
          "name": "approved",
          "type": "bool"
        }
      ],
      "name": "setApprovalForAll",
      "outputs": [],
      "stateMutability": "nonpayable",
      "type": "function"
    },
    {
      "inputs": [
        {
          "internalType": "address",
          "name": "contributor",
          "type": "address"
        },
        {
          "internalType": "uint256",
          "name": "tokenId",
          "type": "uint256"
        },
        {
          "internalType": "uint256",
          "name": "qualityScore",
          "type": "uint256"
        }
      ],
      "name": "setValidator",
      "outputs": [],
      "stateMutability": "nonpayable",
      "type": "function"
    },
    {
      "inputs": [
        {
          "internalType": "bytes4",
          "name": "interfaceId",
          "type": "bytes4"
        }
      ],
      "name": "supportsInterface",
      "outputs": [
        {
          "internalType": "bool",
          "name": "",
          "type": "bool"
        }
      ],
      "stateMutability": "view",
      "type": "function"
    },
    {
      "inputs": [],
      "name": "symbol",
      "outputs": [
        {
          "internalType": "string",
          "name": "",
          "type": "string"
        }
      ],
      "stateMutability": "view",
      "type": "function"
    },
    {
      "inputs": [
        {
          "internalType": "uint256",
          "name": "index",
          "type": "uint256"
        }
      ],
      "name": "tokenByIndex",
      "outputs": [
        {
          "internalType": "uint256",
          "name": "",
          "type": "uint256"
        }
      ],
      "stateMutability": "view",
      "type": "function"
    },
    {
      "inputs": [
        {
          "internalType": "address",
          "name": "owner",
          "type": "address"
        },
        {
          "internalType": "uint256",
          "name": "index",
          "type": "uint256"
        }
      ],
      "name": "tokenOfOwnerByIndex",
      "outputs": [
        {
          "internalType": "uint256",
          "name": "",
          "type": "uint256"
        }
      ],
      "stateMutability": "view",
      "type": "function"
    },
    {
      "inputs": [
        {
          "internalType": "uint256",
          "name": "tokenId",
          "type": "uint256"
        }
      ],
      "name": "tokenURI",
      "outputs": [
        {
          "internalType": "string",
          "name": "",
          "type": "string"
        }
      ],
      "stateMutability": "view",
      "type": "function"
    },
    {
      "inputs": [
        {
          "internalType": "address",
          "name": "",
          "type": "address"
        }
      ],
      "name": "totalRevenueByContributor",
      "outputs": [
        {
          "internalType": "uint256",
          "name": "",
          "type": "uint256"
        }
      ],
      "stateMutability": "view",
      "type": "function"
    },
    {
      "inputs": [],
      "name": "totalSupply",
      "outputs": [
        {
          "internalType": "uint256",
          "name": "",
          "type": "uint256"
        }
      ],
      "stateMutability": "view",
      "type": "function"
    },
    {
      "inputs": [
        {
          "internalType": "address",
          "name": "from",
          "type": "address"
        },
        {
          "internalType": "address",
          "name": "to",
          "type": "address"
        },
        {
          "internalType": "uint256",
          "name": "tokenId",
          "type": "uint256"
        }
      ],
      "name": "transferFrom",
      "outputs": [],
      "stateMutability": "nonpayable",
      "type": "function"
    },
    {
      "inputs": [
        {
          "internalType": "address",
          "name": "newOwner",
          "type": "address"
        }
      ],
      "name": "transferOwnership",
      "outputs": [],
      "stateMutability": "nonpayable",
      "type": "function"
    },
    {
      "inputs": [
        {
          "internalType": "uint256",
          "name": "",
          "type": "uint256"
        }
      ],
      "name": "voiceShares",
      "outputs": [
        {
          "internalType": "address",
          "name": "contributor",
          "type": "address"
        },
        {
          "internalType": "string",
          "name": "language",
          "type": "string"
        },
        {
          "internalType": "uint256",
          "name": "timestamp",
          "type": "uint256"
        },
        {
          "internalType": "uint256",
          "name": "duration",
          "type": "uint256"
        },
        {
          "internalType": "uint256",
          "name": "qualityScore",
          "type": "uint256"
        },
        {
          "internalType": "string",
          "name": "audioIPFSHash",
          "type": "string"
        },
        {
          "internalType": "uint256",
          "name": "revenueEarned",
          "type": "uint256"
        },
        {
          "internalType": "uint256",
          "name": "modelVersion",
          "type": "uint256"
        },
        {
          "internalType": "bool",
          "name": "isValidator",
          "type": "bool"
        },
        {
          "internalType": "uint256",
          "name": "rarityTier",
          "type": "uint256"
        }
      ],
      "stateMutability": "view",
      "type": "function"
    }
  ],
  "bytecode": "0x608060405234801561000f575f5ffd5b50604051612b27380380612b2783398101604081905261002e9161011e565b806040518060400160405280600c81526020016b566f6963652053686172657360a01b81525060405180604001604052806005815260200164564f49434560d81b815250815f908161008091906101e3565b50600161008d82826101e3565b5050506001600160a01b0381166100bd57604051631e4fbdf760e01b81525f600482015260240160405180910390fd5b6100c6816100cd565b505061029d565b600b80546001600160a01b038381166001600160a01b0319831681179093556040519116919082907f8be0079c531659141344cd1fd0a4f28419497f9722a3daafe3b4186f6b6457e0905f90a35050565b5f6020828403121561012e575f5ffd5b81516001600160a01b0381168114610144575f5ffd5b9392505050565b634e487b7160e01b5f52604160045260245ffd5b600181811c9082168061017357607f821691505b60208210810361019157634e487b7160e01b5f52602260045260245ffd5b50919050565b601f8211156101de57805f5260205f20601f840160051c810160208510156101bc5750805b601f840160051c820191505b818110156101db575f81556001016101c8565b50505b505050565b81516001600160401b038111156101fc576101fc61014b565b6102108161020a845461015f565b84610197565b6020601f821160018114610242575f831561022b5750848201515b5f19600385901b1c1916600184901b1784556101db565b5f84815260208120601f198516915b828110156102715787850151825560209485019460019092019101610251565b508482101561028e57868401515f19600387901b60f8161c191681555b50505050600190811b01905550565b61287d806102aa5f395ff3fe608060405234801561000f575f5ffd5b50600436106101e7575f3560e01c806370a082311161010957806395d89b411161009e578063c87b56dd1161006e578063c87b56dd1461049e578063d32b501c146104b1578063e985e9c5146104c4578063f2fde38b146104d7575f5ffd5b806395d89b4114610445578063a22cb4651461044d578063b88d4fde14610460578063bab028f914610473575f5ffd5b806380fe8a2c116100d957806380fe8a2c146103d9578063814b5e9e146103f85780638448a5a9146104215780638da5cb5b14610434575f5ffd5b806370a0823114610374578063715018a6146103875780637d728d071461038f5780637f89f738146103ae575f5ffd5b80631cb536ed1161017f57806340398d671161014f57806340398d671461032857806342842e0e1461033b5780634f6ccce71461034e5780636352211e14610361575f5ffd5b80631cb536ed146102cf57806323b872dd146102e25780632f745c59146102f557806334d40fe814610308575f5ffd5b8063095ea7b3116101ba578063095ea7b3146102805780630a0fe02714610295578063120e3aab146102b457806318160ddd146102c7575f5ffd5b806301ffc9a7146101eb57806305295cba1461021357806306fdde0314610240578063081812fc14610255575b5f5ffd5b6101fe6101f936600461205a565b6104ea565b60405190151581526020015b60405180910390f35b610232610221366004612090565b60116020525f908152604090205481565b60405190815260200161020a565b6102486104fa565b60405161020a91906120d7565b6102686102633660046120e9565b610589565b6040516001600160a01b03909116815260200161020a565b61029361028e366004612100565b6105b0565b005b6102326102a33660046120e9565b600e6020525f908152604090205481565b6102326102c23660046121e2565b6105bf565b600854610232565b6102936102dd3660046120e9565b61088e565b6102936102f036600461226f565b610980565b610232610303366004612100565b610a09565b61031b6103163660046122a9565b610a6c565b60405161020a91906122da565b61031b610336366004612090565b610bd2565b61029361034936600461226f565b610c66565b61023261035c3660046120e9565b610c85565b61026861036f3660046120e9565b610cda565b610232610382366004612090565b610ce4565b610293610d29565b61023261039d366004612090565b60106020525f908152604090205481565b6102326103bc3660046122a9565b805160208183018101805160128252928201919093012091525481565b6102326103e7366004612090565b600f6020525f908152604090205481565b61040b6104063660046120e9565b610d3c565b60405161020a9a9998979695949392919061231c565b61029361042f366004612390565b610ea5565b600b546001600160a01b0316610268565b610248610fa6565b61029361045b3660046123c0565b610fb5565b61029361046e3660046123f9565b610fc0565b6102326104813660046122a9565b805160208183018101805160138252928201919093012091525481565b6102486104ac3660046120e9565b610fd8565b6102936104bf3660046124ee565b610fe3565b6101fe6104d2366004612551565b61136f565b6102936104e5366004612090565b61139c565b5f6104f4826113d9565b92915050565b60605f805461050890612582565b80601f016020809104026020016040519081016040528092919081815260200182805461053490612582565b801561057f5780601f106105565761010080835404028352916020019161057f565b820191905f5260205f20905b81548152906001019060200180831161056257829003601f168201915b5050505050905090565b5f610593826113fd565b505f828152600460205260409020546001600160a01b03166104f4565b6105bb828233611435565b5050565b5f6105c8611442565b60648311156106165760405162461bcd60e51b8152602060048201526015602482015274496e76616c6964207175616c6974792073636f726560581b60448201526064015b60405180910390fd5b60018210158015610628575060058211155b61066a5760405162461bcd60e51b815260206004820152601360248201527224b73b30b634b2103930b934ba3c903a34b2b960691b604482015260640161060d565b600a841015801561067d575061012c8411155b6106bc5760405162461bcd60e51b815260206004820152601060248201526f24b73b30b634b210323ab930ba34b7b760811b604482015260640161060d565b600c80549081905f6106cd836125ce565b91905055506106dc888261146f565b60408051610140810182526001600160a01b038a8116825260208083018b81524284860152606084018a90526080840189905260a084018b90525f60c08501819052600160e08601819052610100860182905261012086018a9052878252600d90935294909420835181546001600160a01b03191693169290921782559251919283929082019061076d908261262a565b5060408201516002820155606082015160038201556080820151600482015560a082015160058201906107a0908261262a565b5060c0820151600682015560e0820151600782015561010082015160088201805460ff1916911515919091179055610120909101516009909101556040516012906107ec908a906126fb565b9081526040519081900360200190208054905f610808836125ce565b90915550506001600160a01b0389165f908152601160205260408120805491610830836125ce565b919050555061083e89611488565b886001600160a01b0316827fe12b667356694085f84332d1bbda35cb60645b40a4467d5b83278c6583750a508a8760405161087a929190612706565b60405180910390a350979650505050505050565b3361089882610cda565b6001600160a01b0316146108e05760405162461bcd60e51b815260206004820152600f60248201526e2737ba103a37b5b2b71037bbb732b960891b604482015260640161060d565b5f818152600e6020526040902054806109305760405162461bcd60e51b81526020600482015260126024820152714e6f2070656e64696e6720726576656e756560701b604482015260640161060d565b5f828152600e6020526040808220919091555182907ff2838e4b541f90d41a1076a560d75e948f7d1008e72118a655568626a30b451f906109749084815260200190565b60405180910390a25050565b6001600160a01b0382166109a957604051633250574960e11b81525f600482015260240161060d565b5f6109b5838333611565565b9050836001600160a01b0316816001600160a01b031614610a03576040516364283d7b60e01b81526001600160a01b038086166004830152602482018490528216604482015260640161060d565b50505050565b5f610a1383610ce4565b8210610a445760405163295f44f760e21b81526001600160a01b03841660048201526024810183905260440161060d565b506001600160a01b03919091165f908152600660209081526040808320938352929052205490565b60605f805b600c54811015610ae9575f818152600260205260409020546001600160a01b031615801590610ace57508380519060200120600d5f8381526020019081526020015f20600101604051610ac49190612727565b6040518091039020145b15610ae15781610add816125ce565b9250505b600101610a71565b505f816001600160401b03811115610b0357610b03612128565b604051908082528060200260200182016040528015610b2c578160200160208202803683370190505b5090505f805b600c54811015610bc8575f818152600260205260409020546001600160a01b031615801590610b8f57508580519060200120600d5f8381526020019081526020015f20600101604051610b859190612727565b6040518091039020145b15610bc05780838381518110610ba757610ba7612798565b602090810291909101015281610bbc816125ce565b9250505b600101610b32565b5090949350505050565b60605f610bde83610ce4565b90505f816001600160401b03811115610bf957610bf9612128565b604051908082528060200260200182016040528015610c22578160200160208202803683370190505b5090505f5b82811015610c5e57610c398582610a09565b828281518110610c4b57610c4b612798565b6020908102919091010152600101610c27565b509392505050565b610c8083838360405180602001604052805f815250610fc0565b505050565b5f610c8f60085490565b8210610cb75760405163295f44f760e21b81525f60048201526024810183905260440161060d565b60088281548110610cca57610cca612798565b905f5260205f2001549050919050565b5f6104f4826113fd565b5f6001600160a01b038216610d0e576040516322718ad960e21b81525f600482015260240161060d565b506001600160a01b03165f9081526003602052604090205490565b610d31611442565b610d3a5f611579565b565b600d6020525f9081526040902080546001820180546001600160a01b039092169291610d6790612582565b80601f0160208091040260200160405190810160405280929190818152602001828054610d9390612582565b8015610dde5780601f10610db557610100808354040283529160200191610dde565b820191905f5260205f20905b815481529060010190602001808311610dc157829003601f168201915b505050505090806002015490806003015490806004015490806005018054610e0590612582565b80601f0160208091040260200160405190810160405280929190818152602001828054610e3190612582565b8015610e7c5780601f10610e5357610100808354040283529160200191610e7c565b820191905f5260205f20905b815481529060010190602001808311610e5f57829003601f168201915b5050506006840154600785015460088601546009909601549495919490935060ff90911691508a565b610ead611442565b6064811115610ef65760405162461bcd60e51b8152602060048201526015602482015274496e76616c6964207175616c6974792073636f726560581b604482015260640161060d565b6001600160a01b0383165f90815260116020526040902054600a11610f5d575f5b610f2084610ce4565b811015610f5b575f610f328583610a09565b5f908152600d60205260409020600801805460ff19166001908117909155919091019050610f17565b505b826001600160a01b0316827f480d1275d141c9e0ef631d67776aec7f9684a90cc79de62e23f75f3e4c8fd0f683604051610f9991815260200190565b60405180910390a3505050565b60606001805461050890612582565b6105bb3383836115ca565b610fcb848484610980565b610a033385858585611660565b60606104f482611788565b610feb611442565b80518251146110305760405162461bcd60e51b81526020600482015260116024820152704d69736d6174636865642061727261797360781b604482015260640161060d565b5f5b8251811015610c80575f6001600160a01b031661107c84838151811061105a5761105a612798565b60200260200101515f908152600260205260409020546001600160a01b031690565b6001600160a01b0316036110c95760405162461bcd60e51b8152602060048201526014602482015273151bdad95b88191bd95cc81b9bdd08195e1a5cdd60621b604482015260640161060d565b8181815181106110db576110db612798565b6020026020010151600e5f8584815181106110f8576110f8612798565b602002602001015181526020019081526020015f205f82825461111b91906127ac565b9250508190555081818151811061113457611134612798565b6020026020010151600d5f85848151811061115157611151612798565b602002602001015181526020019081526020015f206006015f82825461117791906127ac565b925050819055505f6111a184838151811061119457611194612798565b6020026020010151610cda565b90508282815181106111b5576111b5612798565b6020026020010151600f5f836001600160a01b03166001600160a01b031681526020019081526020015f205f8282546111ee91906127ac565b925050819055505f600d5f86858151811061120b5761120b612798565b602002602001015181526020019081526020015f20600101805461122e90612582565b80601f016020809104026020016040519081016040528092919081815260200182805461125a90612582565b80156112a55780601f1061127c576101008083540402835291602001916112a5565b820191905f5260205f20905b81548152906001019060200180831161128857829003601f168201915b505050505090508383815181106112be576112be612798565b60200260200101516013826040516112d691906126fb565b90815260200160405180910390205f8282546112f291906127ac565b9250508190555084838151811061130b5761130b612798565b60200260200101517ff2838e4b541f90d41a1076a560d75e948f7d1008e72118a655568626a30b451f85858151811061134657611346612798565b602002602001015160405161135d91815260200190565b60405180910390a25050600101611032565b6001600160a01b039182165f90815260056020908152604080832093909416825291909152205460ff1690565b6113a4611442565b6001600160a01b0381166113cd57604051631e4fbdf760e01b81525f600482015260240161060d565b6113d681611579565b50565b5f6001600160e01b03198216632483248360e11b14806104f457506104f48261188b565b5f818152600260205260408120546001600160a01b0316806104f457604051637e27328960e01b81526004810184905260240161060d565b610c8083838360016118af565b600b546001600160a01b03163314610d3a5760405163118cdaa760e01b815233600482015260240161060d565b6105bb828260405180602001604052805f8152506119b3565b6001600160a01b0381165f9081526011602090815260408083205460109092529091205480606483108015906114be5750600382105b156114cb57506003611503565b603283101580156114dc5750600282105b156114e957506002611503565b601483101580156114fa5750600182105b15611503575060015b81811115610a03576001600160a01b0384165f8181526010602052604090819020839055517fa3f9159b0f8e37ad233c38f01317295984b2365aac02d2f555e91e395e64b626906115579084815260200190565b60405180910390a250505050565b5f6115718484846119ca565b949350505050565b600b80546001600160a01b038381166001600160a01b0319831681179093556040519116919082907f8be0079c531659141344cd1fd0a4f28419497f9722a3daafe3b4186f6b6457e0905f90a35050565b6001600160a01b0382166115fc57604051630b61174360e31b81526001600160a01b038316600482015260240161060d565b6001600160a01b038381165f81815260056020908152604080832094871680845294825291829020805460ff191686151590811790915591519182527f17307eab39ab6107e8899845ad3d59bd9653f200f220920489ca2b5937696c319101610f99565b6001600160a01b0383163b1561178157604051630a85bd0160e11b81526001600160a01b0384169063150b7a02906116a29088908890879087906004016127bf565b6020604051808303815f875af19250505080156116dc575060408051601f3d908101601f191682019092526116d9918101906127f1565b60015b611743573d808015611709576040519150601f19603f3d011682016040523d82523d5f602084013e61170e565b606091505b5080515f0361173b57604051633250574960e11b81526001600160a01b038516600482015260240161060d565b805160208201fd5b6001600160e01b03198116630a85bd0160e11b1461177f57604051633250574960e11b81526001600160a01b038516600482015260240161060d565b505b5050505050565b6060611793826113fd565b505f828152600a6020526040812080546117ac90612582565b80601f01602080910402602001604051908101604052809291908181526020018280546117d890612582565b80156118235780601f106117fa57610100808354040283529160200191611823565b820191905f5260205f20905b81548152906001019060200180831161180657829003601f168201915b505050505090505f61183f60408051602081019091525f815290565b905080515f03611850575092915050565b81511561188257808260405160200161186a92919061280c565b60405160208183030381529060405292505050919050565b61157184611a95565b5f6001600160e01b0319821663780e9d6360e01b14806104f457506104f482611b06565b80806118c357506001600160a01b03821615155b15611984575f6118d2846113fd565b90506001600160a01b038316158015906118fe5750826001600160a01b0316816001600160a01b031614155b8015611911575061190f818461136f565b155b1561193a5760405163a9fbf51f60e01b81526001600160a01b038416600482015260240161060d565b81156119825783856001600160a01b0316826001600160a01b03167f8c5be1e5ebec7d5bd14f71427d1e84f3dd0314c0f7b2291e5b200ac8c7c3b92560405160405180910390a45b505b50505f90815260046020526040902080546001600160a01b0319166001600160a01b0392909216919091179055565b6119bd8383611b55565b610c80335f858585611660565b5f5f6119d7858585611bb6565b90506001600160a01b038116611a3357611a2e84600880545f838152600960205260408120829055600182018355919091527ff3f7a9fe364faab93b216da50a3214154f22a0a2b415b23a84c8169e8b636ee30155565b611a56565b846001600160a01b0316816001600160a01b031614611a5657611a568185611ca8565b6001600160a01b038516611a7257611a6d84611d25565b611571565b846001600160a01b0316816001600160a01b031614611571576115718585611dcc565b6060611aa0826113fd565b505f611ab660408051602081019091525f815290565b90505f815111611ad45760405180602001604052805f815250611aff565b80611ade84611e1a565b604051602001611aef92919061280c565b6040516020818303038152906040525b9392505050565b5f6001600160e01b031982166380ac58cd60e01b1480611b3657506001600160e01b03198216635b5e139f60e01b145b806104f457506301ffc9a760e01b6001600160e01b03198316146104f4565b6001600160a01b038216611b7e57604051633250574960e11b81525f600482015260240161060d565b5f611b8a83835f611565565b90506001600160a01b03811615610c80576040516339e3563760e11b81525f600482015260240161060d565b5f828152600260205260408120546001600160a01b0390811690831615611be257611be2818486611ea9565b6001600160a01b03811615611c1c57611bfd5f855f5f6118af565b6001600160a01b0381165f90815260036020526040902080545f190190555b6001600160a01b03851615611c4a576001600160a01b0385165f908152600360205260409020805460010190555b5f8481526002602052604080822080546001600160a01b0319166001600160a01b0389811691821790925591518793918516917fddf252ad1be2c89b69c2b068fc378daa952ba7f163c4a11628f55a4df523b3ef91a4949350505050565b5f611cb283610ce4565b5f838152600760209081526040808320546001600160a01b0388168452600690925290912091925090818314611d07575f83815260208281526040808320548584528184208190558352600790915290208290555b5f938452600760209081526040808620869055938552525081205550565b6008545f90611d3690600190612820565b5f8381526009602052604081205460088054939450909284908110611d5d57611d5d612798565b905f5260205f20015490508060088381548110611d7c57611d7c612798565b5f918252602080832090910192909255828152600990915260408082208490558582528120556008805480611db357611db3612833565b600190038181905f5260205f20015f9055905550505050565b5f6001611dd884610ce4565b611de29190612820565b6001600160a01b039093165f908152600660209081526040808320868452825280832085905593825260079052919091209190915550565b60605f611e2683611f0d565b60010190505f816001600160401b03811115611e4457611e44612128565b6040519080825280601f01601f191660200182016040528015611e6e576020820181803683370190505b5090508181016020015b5f19016f181899199a1a9b1b9c1cb0b131b232b360811b600a86061a8153600a8504945084611e7857509392505050565b611eb4838383611fe4565b610c80576001600160a01b038316611ee257604051637e27328960e01b81526004810182905260240161060d565b60405163177e802f60e01b81526001600160a01b03831660048201526024810182905260440161060d565b5f8072184f03e93ff9f4daa797ed6e38ed64bf6a1f0160401b8310611f4b5772184f03e93ff9f4daa797ed6e38ed64bf6a1f0160401b830492506040015b6d04ee2d6d415b85acef81000000008310611f77576d04ee2d6d415b85acef8100000000830492506020015b662386f26fc100008310611f9557662386f26fc10000830492506010015b6305f5e1008310611fad576305f5e100830492506008015b6127108310611fc157612710830492506004015b60648310611fd3576064830492506002015b600a83106104f45760010192915050565b5f6001600160a01b038316158015906115715750826001600160a01b0316846001600160a01b0316148061201d575061201d848461136f565b806115715750505f908152600460205260409020546001600160a01b03908116911614919050565b6001600160e01b0319811681146113d6575f5ffd5b5f6020828403121561206a575f5ffd5b8135611aff81612045565b80356001600160a01b038116811461208b575f5ffd5b919050565b5f602082840312156120a0575f5ffd5b611aff82612075565b5f81518084528060208401602086015e5f602082860101526020601f19601f83011685010191505092915050565b602081525f611aff60208301846120a9565b5f602082840312156120f9575f5ffd5b5035919050565b5f5f60408385031215612111575f5ffd5b61211a83612075565b946020939093013593505050565b634e487b7160e01b5f52604160045260245ffd5b604051601f8201601f191681016001600160401b038111828210171561216457612164612128565b604052919050565b5f5f6001600160401b0384111561218557612185612128565b50601f8301601f191660200161219a8161213c565b9150508281528383830111156121ae575f5ffd5b828260208301375f602084830101529392505050565b5f82601f8301126121d3575f5ffd5b611aff8383356020850161216c565b5f5f5f5f5f5f60c087890312156121f7575f5ffd5b61220087612075565b955060208701356001600160401b0381111561221a575f5ffd5b61222689828a016121c4565b95505060408701356001600160401b03811115612241575f5ffd5b61224d89828a016121c4565b969995985095966060810135965060808101359560a090910135945092505050565b5f5f5f60608486031215612281575f5ffd5b61228a84612075565b925061229860208501612075565b929592945050506040919091013590565b5f602082840312156122b9575f5ffd5b81356001600160401b038111156122ce575f5ffd5b611571848285016121c4565b602080825282518282018190525f918401906040840190835b818110156123115783518352602093840193909201916001016122f3565b509095945050505050565b6001600160a01b038b168152610140602082018190525f906123409083018c6120a9565b8a604084015289606084015288608084015282810360a084015261236481896120a9565b60c0840197909752505060e0810193909352901515610100830152610120909101529695505050505050565b5f5f5f606084860312156123a2575f5ffd5b6123ab84612075565b95602085013595506040909401359392505050565b5f5f604083850312156123d1575f5ffd5b6123da83612075565b9150602083013580151581146123ee575f5ffd5b809150509250929050565b5f5f5f5f6080858703121561240c575f5ffd5b61241585612075565b935061242360208601612075565b92506040850135915060608501356001600160401b03811115612444575f5ffd5b8501601f81018713612454575f5ffd5b6124638782356020840161216c565b91505092959194509250565b5f82601f83011261247e575f5ffd5b81356001600160401b0381111561249757612497612128565b8060051b6124a76020820161213c565b918252602081850181019290810190868411156124c2575f5ffd5b6020860192505b838310156124e45782358252602092830192909101906124c9565b9695505050505050565b5f5f604083850312156124ff575f5ffd5b82356001600160401b03811115612514575f5ffd5b6125208582860161246f565b92505060208301356001600160401b0381111561253b575f5ffd5b6125478582860161246f565b9150509250929050565b5f5f60408385031215612562575f5ffd5b61256b83612075565b915061257960208401612075565b90509250929050565b600181811c9082168061259657607f821691505b6020821081036125b457634e487b7160e01b5f52602260045260245ffd5b50919050565b634e487b7160e01b5f52601160045260245ffd5b5f600182016125df576125df6125ba565b5060010190565b601f821115610c8057805f5260205f20601f840160051c8101602085101561260b5750805b601f840160051c820191505b81811015611781575f8155600101612617565b81516001600160401b0381111561264357612643612128565b612657816126518454612582565b846125e6565b6020601f821160018114612689575f83156126725750848201515b5f19600385901b1c1916600184901b178455611781565b5f84815260208120601f198516915b828110156126b85787850151825560209485019460019092019101612698565b50848210156126d557868401515f19600387901b60f8161c191681555b50505050600190811b01905550565b5f81518060208401855e5f93019283525090919050565b5f611aff82846126e4565b604081525f61271860408301856120a9565b90508260208301529392505050565b5f5f835461273481612582565b60018216801561274b57600181146127605761278d565b60ff198316865281151582028601935061278d565b865f5260205f205f5b8381101561278557815488820152600190910190602001612769565b505081860193505b509195945050505050565b634e487b7160e01b5f52603260045260245ffd5b808201808211156104f4576104f46125ba565b6001600160a01b03858116825284166020820152604081018390526080606082018190525f906124e4908301846120a9565b5f60208284031215612801575f5ffd5b8151611aff81612045565b5f61157161281a83866126e4565b846126e4565b818103818111156104f4576104f46125ba565b634e487b7160e01b5f52603160045260245ffdfea264697066735822122037b76aaa686876c5fd8f1cd9ba9dca2d9ad5902e92ed683e3fa7baab9238832564736f6c634300081b0033",
  "linkReferences": {},
  "deployedLinkReferences": {}
}