{
  "_format": "hh-sol-artifact-1",
  "contractName": "LinguaDAO",
  "sourceName": "contracts/LinguaDAO.sol",
  "abi": [
    {
      "inputs": [
        {
          "internalType": "address",
          "name": "_token",
          "type": "address"
        },
        {
          "internalType": "address",
          "name": "_nft",
          "type": "address"
        }
      ],
      "stateMutability": "nonpayable",
      "type": "constructor"
    },
    {
      "inputs": [],
      "name": "CheckpointUnorderedInsertion",
      "type": "error"
    },
    {
      "inputs": [],
      "name": "FailedCall",
      "type": "error"
    },
    {
      "inputs": [
        {
          "internalType": "address",
          "name": "voter",
          "type": "address"
        }
      ],
      "name": "GovernorAlreadyCastVote",
      "type": "error"
    },
    {
      "inputs": [
        {
          "internalType": "uint256",
          "name": "proposalId",
          "type": "uint256"
        }
      ],
      "name": "GovernorAlreadyQueuedProposal",
      "type": "error"
    },
    {
      "inputs": [],
      "name": "GovernorDisabledDeposit",
      "type": "error"
    },
    {
      "inputs": [
        {
          "internalType": "address",
          "name": "proposer",
          "type": "address"
        },
        {
          "internalType": "uint256",
          "name": "votes",
          "type": "uint256"
        },
        {
          "internalType": "uint256",
          "name": "threshold",
          "type": "uint256"
        }
      ],
      "name": "GovernorInsufficientProposerVotes",
      "type": "error"
    },
    {
      "inputs": [
        {
          "internalType": "uint256",
          "name": "targets",
          "type": "uint256"
        },
        {
          "internalType": "uint256",
          "name": "calldatas",
          "type": "uint256"
        },
        {
          "internalType": "uint256",
          "name": "values",
          "type": "uint256"
        }
      ],
      "name": "GovernorInvalidProposalLength",
      "type": "error"
    },
    {
      "inputs": [
        {
          "internalType": "uint256",
          "name": "quorumNumerator",
          "type": "uint256"
        },
        {
          "internalType": "uint256",
          "name": "quorumDenominator",
          "type": "uint256"
        }
      ],
      "name": "GovernorInvalidQuorumFraction",
      "type": "error"
    },
    {
      "inputs": [
        {
          "internalType": "address",
          "name": "voter",
          "type": "address"
        }
      ],
      "name": "GovernorInvalidSignature",
      "type": "error"
    },
    {
      "inputs": [],
      "name": "GovernorInvalidVoteParams",
      "type": "error"
    },
    {
      "inputs": [],
      "name": "GovernorInvalidVoteType",
      "type": "error"
    },
    {
      "inputs": [
        {
          "internalType": "uint256",
          "name": "votingPeriod",
          "type": "uint256"
        }
      ],
      "name": "GovernorInvalidVotingPeriod",
      "type": "error"
    },
    {
      "inputs": [
        {
          "internalType": "uint256",
          "name": "proposalId",
          "type": "uint256"
        }
      ],
      "name": "GovernorNonexistentProposal",
      "type": "error"
    },
    {
      "inputs": [
        {
          "internalType": "uint256",
          "name": "proposalId",
          "type": "uint256"
        }
      ],
      "name": "GovernorNotQueuedProposal",
      "type": "error"
    },
    {
      "inputs": [
        {
          "internalType": "address",
          "name": "account",
          "type": "address"
        }
      ],
      "name": "GovernorOnlyExecutor",
      "type": "error"
    },
    {
      "inputs": [],
      "name": "GovernorQueueNotImplemented",
      "type": "error"
    },
    {
      "inputs": [
        {
          "internalType": "address",
          "name": "proposer",
          "type": "address"
        }
      ],
      "name": "GovernorRestrictedProposer",
      "type": "error"
    },
    {
      "inputs": [
        {
          "internalType": "uint256",
          "name": "proposalId",
          "type": "uint256"
        },
        {
          "internalType": "address",
          "name": "account",
          "type": "address"
        }
      ],
      "name": "GovernorUnableToCancel",
      "type": "error"
    },
    {
      "inputs": [
        {
          "internalType": "uint256",
          "name": "proposalId",
          "type": "uint256"
        },
        {
          "internalType": "enum IGovernor.ProposalState",
          "name": "current",
          "type": "uint8"
        },
        {
          "internalType": "bytes32",
          "name": "expectedStates",
          "type": "bytes32"
        }
      ],
      "name": "GovernorUnexpectedProposalState",
      "type": "error"
    },
    {
      "inputs": [
        {
          "internalType": "address",
          "name": "account",
          "type": "address"
        },
        {
          "internalType": "uint256",
          "name": "currentNonce",
          "type": "uint256"
        }
      ],
      "name": "InvalidAccountNonce",
      "type": "error"
    },
    {
      "inputs": [],
      "name": "InvalidShortString",
      "type": "error"
    },
    {
      "inputs": [
        {
          "internalType": "uint8",
          "name": "bits",
          "type": "uint8"
        },
        {
          "internalType": "uint256",
          "name": "value",
          "type": "uint256"
        }
      ],
      "name": "SafeCastOverflowedUintDowncast",
      "type": "error"
    },
    {
      "inputs": [
        {
          "internalType": "string",
          "name": "str",
          "type": "string"
        }
      ],
      "name": "StringTooLong",
      "type": "error"
    },
    {
      "anonymous": false,
      "inputs": [],
      "name": "EIP712DomainChanged",
      "type": "event"
    },
    {
      "anonymous": false,
      "inputs": [
        {
          "indexed": false,
          "internalType": "string",
          "name": "action",
          "type": "string"
        },
        {
          "indexed": false,
          "internalType": "address",
          "name": "executor",
          "type": "address"
        }
      ],
      "name": "EmergencyActionTaken",
      "type": "event"
    },
    {
      "anonymous": false,
      "inputs": [
        {
          "indexed": false,
          "internalType": "string",
          "name": "language",
          "type": "string"
        },
        {
          "indexed": false,
          "internalType": "uint256",
          "name": "amount",
          "type": "uint256"
        },
        {
          "indexed": false,
          "internalType": "address",
          "name": "recipient",
          "type": "address"
        }
      ],
      "name": "FundsAllocated",
      "type": "event"
    },
    {
      "anonymous": false,
      "inputs": [
        {
          "indexed": false,
          "internalType": "string",
          "name": "language",
          "type": "string"
        }
      ],
      "name": "LanguageAdded",
      "type": "event"
    },
    {
      "anonymous": false,
      "inputs": [
        {
          "indexed": false,
          "internalType": "uint256",
          "name": "proposalId",
          "type": "uint256"
        }
      ],
      "name": "ProposalCanceled",
      "type": "event"
    },
    {
      "anonymous": false,
      "inputs": [
        {
          "indexed": false,
          "internalType": "uint256",
          "name": "proposalId",
          "type": "uint256"
        },
        {
          "indexed": false,
          "internalType": "address",
          "name": "proposer",
          "type": "address"
        },
        {
          "indexed": false,
          "internalType": "address[]",
          "name": "targets",
          "type": "address[]"
        },
        {
          "indexed": false,
          "internalType": "uint256[]",
          "name": "values",
          "type": "uint256[]"
        },
        {
          "indexed": false,
          "internalType": "string[]",
          "name": "signatures",
          "type": "string[]"
        },
        {
          "indexed": false,
          "internalType": "bytes[]",
          "name": "calldatas",
          "type": "bytes[]"
        },
        {
          "indexed": false,
          "internalType": "uint256",
          "name": "voteStart",
          "type": "uint256"
        },
        {
          "indexed": false,
          "internalType": "uint256",
          "name": "voteEnd",
          "type": "uint256"
        },
        {
          "indexed": false,
          "internalType": "string",
          "name": "description",
          "type": "string"
        }
      ],
      "name": "ProposalCreated",
      "type": "event"
    },
    {
      "anonymous": false,
      "inputs": [
        {
          "indexed": false,
          "internalType": "uint256",
          "name": "proposalId",
          "type": "uint256"
        }
      ],
      "name": "ProposalExecuted",
      "type": "event"
    },
    {
      "anonymous": false,
      "inputs": [
        {
          "indexed": false,
          "internalType": "uint256",
          "name": "proposalId",
          "type": "uint256"
        },
        {
          "indexed": false,
          "internalType": "uint256",
          "name": "etaSeconds",
          "type": "uint256"
        }
      ],
      "name": "ProposalQueued",
      "type": "event"
    },
    {
      "anonymous": false,
      "inputs": [
        {
          "indexed": false,
          "internalType": "uint256",
          "name": "oldProposalThreshold",
          "type": "uint256"
        },
        {
          "indexed": false,
          "internalType": "uint256",
          "name": "newProposalThreshold",
          "type": "uint256"
        }
      ],
      "name": "ProposalThresholdSet",
      "type": "event"
    },
    {
      "anonymous": false,
      "inputs": [
        {
          "indexed": false,
          "internalType": "uint256",
          "name": "oldQuorumNumerator",
          "type": "uint256"
        },
        {
          "indexed": false,
          "internalType": "uint256",
          "name": "newQuorumNumerator",
          "type": "uint256"
        }
      ],
      "name": "QuorumNumeratorUpdated",
      "type": "event"
    },
    {
      "anonymous": false,
      "inputs": [
        {
          "indexed": false,
          "internalType": "string",
          "name": "language",
          "type": "string"
        },
        {
          "indexed": false,
          "internalType": "uint256",
          "name": "newMultiplier",
          "type": "uint256"
        }
      ],
      "name": "RewardsAdjusted",
      "type": "event"
    },
    {
      "anonymous": false,
      "inputs": [
        {
          "indexed": true,
          "internalType": "address",
          "name": "voter",
          "type": "address"
        },
        {
          "indexed": false,
          "internalType": "uint256",
          "name": "proposalId",
          "type": "uint256"
        },
        {
          "indexed": false,
          "internalType": "uint8",
          "name": "support",
          "type": "uint8"
        },
        {
          "indexed": false,
          "internalType": "uint256",
          "name": "weight",
          "type": "uint256"
        },
        {
          "indexed": false,
          "internalType": "string",
          "name": "reason",
          "type": "string"
        }
      ],
      "name": "VoteCast",
      "type": "event"
    },
    {
      "anonymous": false,
      "inputs": [
        {
          "indexed": true,
          "internalType": "address",
          "name": "voter",
          "type": "address"
        },
        {
          "indexed": false,
          "internalType": "uint256",
          "name": "proposalId",
          "type": "uint256"
        },
        {
          "indexed": false,
          "internalType": "uint8",
          "name": "support",
          "type": "uint8"
        },
        {
          "indexed": false,
          "internalType": "uint256",
          "name": "weight",
          "type": "uint256"
        },
        {
          "indexed": false,
          "internalType": "string",
          "name": "reason",
          "type": "string"
        },
        {
          "indexed": false,
          "internalType": "bytes",
          "name": "params",
          "type": "bytes"
        }
      ],
      "name": "VoteCastWithParams",
      "type": "event"
    },
    {
      "anonymous": false,
      "inputs": [
        {
          "indexed": false,
          "internalType": "uint256",
          "name": "oldVotingDelay",
          "type": "uint256"
        },
        {
          "indexed": false,
          "internalType": "uint256",
          "name": "newVotingDelay",
          "type": "uint256"
        }
      ],
      "name": "VotingDelaySet",
      "type": "event"
    },
    {
      "anonymous": false,
      "inputs": [
        {
          "indexed": false,
          "internalType": "uint256",
          "name": "oldVotingPeriod",
          "type": "uint256"
        },
        {
          "indexed": false,
          "internalType": "uint256",
          "name": "newVotingPeriod",
          "type": "uint256"
        }
      ],
      "name": "VotingPeriodSet",
      "type": "event"
    },
    {
      "inputs": [],
      "name": "BALLOT_TYPEHASH",
      "outputs": [
        {
          "internalType": "bytes32",
          "name": "",
          "type": "bytes32"
        }
      ],
      "stateMutability": "view",
      "type": "function"
    },
    {
      "inputs": [],
      "name": "CLOCK_MODE",
      "outputs": [
        {
          "internalType": "string",
          "name": "",
          "type": "string"
        }
      ],
      "stateMutability": "view",
      "type": "function"
    },
    {
      "inputs": [],
      "name": "COUNTING_MODE",
      "outputs": [
        {
          "internalType": "string",
          "name": "",
          "type": "string"
        }
      ],
      "stateMutability": "pure",
      "type": "function"
    },
    {
      "inputs": [],
      "name": "EXTENDED_BALLOT_TYPEHASH",
      "outputs": [
        {
          "internalType": "bytes32",
          "name": "",
          "type": "bytes32"
        }
      ],
      "stateMutability": "view",
      "type": "function"
    },
    {
      "inputs": [
        {
          "internalType": "string",
          "name": "language",
          "type": "string"
        },
        {
          "internalType": "uint256",
          "name": "fundingAmount",
          "type": "uint256"
        }
      ],
      "name": "addLanguage",
      "outputs": [],
      "stateMutability": "nonpayable",
      "type": "function"
    },
    {
      "inputs": [
        {
          "internalType": "string",
          "name": "language",
          "type": "string"
        },
        {
          "internalType": "uint256",
          "name": "amount",
          "type": "uint256"
        },
        {
          "internalType": "address",
          "name": "recipient",
          "type": "address"
        }
      ],
      "name": "allocateFunds",
      "outputs": [],
      "stateMutability": "nonpayable",
      "type": "function"
    },
    {
      "inputs": [
        {
          "internalType": "string",
          "name": "",
          "type": "string"
        }
      ],
      "name": "approvedLanguages",
      "outputs": [
        {
          "internalType": "bool",
          "name": "",
          "type": "bool"
        }
      ],
      "stateMutability": "view",
      "type": "function"
    },
    {
      "inputs": [
        {
          "internalType": "address",
          "name": "account",
          "type": "address"
        }
      ],
      "name": "canPropose",
      "outputs": [
        {
          "internalType": "bool",
          "name": "",
          "type": "bool"
        }
      ],
      "stateMutability": "view",
      "type": "function"
    },
    {
      "inputs": [
        {
          "internalType": "address[]",
          "name": "targets",
          "type": "address[]"
        },
        {
          "internalType": "uint256[]",
          "name": "values",
          "type": "uint256[]"
        },
        {
          "internalType": "bytes[]",
          "name": "calldatas",
          "type": "bytes[]"
        },
        {
          "internalType": "bytes32",
          "name": "descriptionHash",
          "type": "bytes32"
        }
      ],
      "name": "cancel",
      "outputs": [
        {
          "internalType": "uint256",
          "name": "",
          "type": "uint256"
        }
      ],
      "stateMutability": "nonpayable",
      "type": "function"
    },
    {
      "inputs": [
        {
          "internalType": "uint256",
          "name": "proposalId",
          "type": "uint256"
        },
        {
          "internalType": "uint8",
          "name": "support",
          "type": "uint8"
        }
      ],
      "name": "castVote",
      "outputs": [
        {
          "internalType": "uint256",
          "name": "",
          "type": "uint256"
        }
      ],
      "stateMutability": "nonpayable",
      "type": "function"
    },
    {
      "inputs": [
        {
          "internalType": "uint256",
          "name": "proposalId",
          "type": "uint256"
        },
        {
          "internalType": "uint8",
          "name": "support",
          "type": "uint8"
        },
        {
          "internalType": "address",
          "name": "voter",
          "type": "address"
        },
        {
          "internalType": "bytes",
          "name": "signature",
          "type": "bytes"
        }
      ],
      "name": "castVoteBySig",
      "outputs": [
        {
          "internalType": "uint256",
          "name": "",
          "type": "uint256"
        }
      ],
      "stateMutability": "nonpayable",
      "type": "function"
    },
    {
      "inputs": [
        {
          "internalType": "uint256",
          "name": "proposalId",
          "type": "uint256"
        },
        {
          "internalType": "uint8",
          "name": "support",
          "type": "uint8"
        },
        {
          "internalType": "string",
          "name": "reason",
          "type": "string"
        }
      ],
      "name": "castVoteWithReason",
      "outputs": [
        {
          "internalType": "uint256",
          "name": "",
          "type": "uint256"
        }
      ],
      "stateMutability": "nonpayable",
      "type": "function"
    },
    {
      "inputs": [
        {
          "internalType": "uint256",
          "name": "proposalId",
          "type": "uint256"
        },
        {
          "internalType": "uint8",
          "name": "support",
          "type": "uint8"
        },
        {
          "internalType": "string",
          "name": "reason",
          "type": "string"
        },
        {
          "internalType": "bytes",
          "name": "params",
          "type": "bytes"
        }
      ],
      "name": "castVoteWithReasonAndParams",
      "outputs": [
        {
          "internalType": "uint256",
          "name": "",
          "type": "uint256"
        }
      ],
      "stateMutability": "nonpayable",
      "type": "function"
    },
    {
      "inputs": [
        {
          "internalType": "uint256",
          "name": "proposalId",
          "type": "uint256"
        },
        {
          "internalType": "uint8",
          "name": "support",
          "type": "uint8"
        },
        {
          "internalType": "address",
          "name": "voter",
          "type": "address"
        },
        {
          "internalType": "string",
          "name": "reason",
          "type": "string"
        },
        {
          "internalType": "bytes",
          "name": "params",
          "type": "bytes"
        },
        {
          "internalType": "bytes",
          "name": "signature",
          "type": "bytes"
        }
      ],
      "name": "castVoteWithReasonAndParamsBySig",
      "outputs": [
        {
          "internalType": "uint256",
          "name": "",
          "type": "uint256"
        }
      ],
      "stateMutability": "nonpayable",
      "type": "function"
    },
    {
      "inputs": [],
      "name": "clock",
      "outputs": [
        {
          "internalType": "uint48",
          "name": "",
          "type": "uint48"
        }
      ],
      "stateMutability": "view",
      "type": "function"
    },
    {
      "inputs": [],
      "name": "eip712Domain",
      "outputs": [
        {
          "internalType": "bytes1",
          "name": "fields",
          "type": "bytes1"
        },
        {
          "internalType": "string",
          "name": "name",
          "type": "string"
        },
        {
          "internalType": "string",
          "name": "version",
          "type": "string"
        },
        {
          "internalType": "uint256",
          "name": "chainId",
          "type": "uint256"
        },
        {
          "internalType": "address",
          "name": "verifyingContract",
          "type": "address"
        },
        {
          "internalType": "bytes32",
          "name": "salt",
          "type": "bytes32"
        },
        {
          "internalType": "uint256[]",
          "name": "extensions",
          "type": "uint256[]"
        }
      ],
      "stateMutability": "view",
      "type": "function"
    },
    {
      "inputs": [
        {
          "internalType": "address[]",
          "name": "targets",
          "type": "address[]"
        },
        {
          "internalType": "uint256[]",
          "name": "values",
          "type": "uint256[]"
        },
        {
          "internalType": "bytes[]",
          "name": "calldatas",
          "type": "bytes[]"
        },
        {
          "internalType": "bytes32",
          "name": "descriptionHash",
          "type": "bytes32"
        }
      ],
      "name": "execute",
      "outputs": [
        {
          "internalType": "uint256",
          "name": "",
          "type": "uint256"
        }
      ],
      "stateMutability": "payable",
      "type": "function"
    },
    {
      "inputs": [
        {
          "internalType": "uint256",
          "name": "proposalId",
          "type": "uint256"
        }
      ],
      "name": "getProposalDetails",
      "outputs": [
        {
          "internalType": "uint256",
          "name": "id",
          "type": "uint256"
        },
        {
          "internalType": "uint256",
          "name": "startBlock",
          "type": "uint256"
        },
        {
          "internalType": "uint256",
          "name": "endBlock",
          "type": "uint256"
        },
        {
          "internalType": "string",
          "name": "description",
          "type": "string"
        }
      ],
      "stateMutability": "view",
      "type": "function"
    },
    {
      "inputs": [
        {
          "internalType": "address[]",
          "name": "targets",
          "type": "address[]"
        },
        {
          "internalType": "uint256[]",
          "name": "values",
          "type": "uint256[]"
        },
        {
          "internalType": "bytes[]",
          "name": "calldatas",
          "type": "bytes[]"
        },
        {
          "internalType": "bytes32",
          "name": "descriptionHash",
          "type": "bytes32"
        }
      ],
      "name": "getProposalId",
      "outputs": [
        {
          "internalType": "uint256",
          "name": "",
          "type": "uint256"
        }
      ],
      "stateMutability": "view",
      "type": "function"
    },
    {
      "inputs": [
        {
          "internalType": "address",
          "name": "account",
          "type": "address"
        },
        {
          "internalType": "uint256",
          "name": "timepoint",
          "type": "uint256"
        }
      ],
      "name": "getVotes",
      "outputs": [
        {
          "internalType": "uint256",
          "name": "",
          "type": "uint256"
        }
      ],
      "stateMutability": "view",
      "type": "function"
    },
    {
      "inputs": [
        {
          "internalType": "address",
          "name": "account",
          "type": "address"
        },
        {
          "internalType": "uint256",
          "name": "timepoint",
          "type": "uint256"
        },
        {
          "internalType": "bytes",
          "name": "params",
          "type": "bytes"
        }
      ],
      "name": "getVotesWithParams",
      "outputs": [
        {
          "internalType": "uint256",
          "name": "",
          "type": "uint256"
        }
      ],
      "stateMutability": "view",
      "type": "function"
    },
    {
      "inputs": [
        {
          "internalType": "uint256",
          "name": "proposalId",
          "type": "uint256"
        },
        {
          "internalType": "address",
          "name": "account",
          "type": "address"
        }
      ],
      "name": "hasVoted",
      "outputs": [
        {
          "internalType": "bool",
          "name": "",
          "type": "bool"
        }
      ],
      "stateMutability": "view",
      "type": "function"
    },
    {
      "inputs": [
        {
          "internalType": "address[]",
          "name": "targets",
          "type": "address[]"
        },
        {
          "internalType": "uint256[]",
          "name": "values",
          "type": "uint256[]"
        },
        {
          "internalType": "bytes[]",
          "name": "calldatas",
          "type": "bytes[]"
        },
        {
          "internalType": "bytes32",
          "name": "descriptionHash",
          "type": "bytes32"
        }
      ],
      "name": "hashProposal",
      "outputs": [
        {
          "internalType": "uint256",
          "name": "",
          "type": "uint256"
        }
      ],
      "stateMutability": "pure",
      "type": "function"
    },
    {
      "inputs": [
        {
          "internalType": "string",
          "name": "",
          "type": "string"
        }
      ],
      "name": "languageFunding",
      "outputs": [
        {
          "internalType": "uint256",
          "name": "",
          "type": "uint256"
        }
      ],
      "stateMutability": "view",
      "type": "function"
    },
    {
      "inputs": [],
      "name": "linguaToken",
      "outputs": [
        {
          "internalType": "contract LinguaToken",
          "name": "",
          "type": "address"
        }
      ],
      "stateMutability": "view",
      "type": "function"
    },
    {
      "inputs": [],
      "name": "name",
      "outputs": [
        {
          "internalType": "string",
          "name": "",
          "type": "string"
        }
      ],
      "stateMutability": "view",
      "type": "function"
    },
    {
      "inputs": [
        {
          "internalType": "address",
          "name": "owner",
          "type": "address"
        }
      ],
      "name": "nonces",
      "outputs": [
        {
          "internalType": "uint256",
          "name": "",
          "type": "uint256"
        }
      ],
      "stateMutability": "view",
      "type": "function"
    },
    {
      "inputs": [
        {
          "internalType": "address",
          "name": "",
          "type": "address"
        },
        {
          "internalType": "address",
          "name": "",
          "type": "address"
        },
        {
          "internalType": "uint256[]",
          "name": "",
          "type": "uint256[]"
        },
        {
          "internalType": "uint256[]",
          "name": "",
          "type": "uint256[]"
        },
        {
          "internalType": "bytes",
          "name": "",
          "type": "bytes"
        }
      ],
      "name": "onERC1155BatchReceived",
      "outputs": [
        {
          "internalType": "bytes4",
          "name": "",
          "type": "bytes4"
        }
      ],
      "stateMutability": "nonpayable",
      "type": "function"
    },
    {
      "inputs": [
        {
          "internalType": "address",
          "name": "",
          "type": "address"
        },
        {
          "internalType": "address",
          "name": "",
          "type": "address"
        },
        {
          "internalType": "uint256",
          "name": "",
          "type": "uint256"
        },
        {
          "internalType": "uint256",
          "name": "",
          "type": "uint256"
        },
        {
          "internalType": "bytes",
          "name": "",
          "type": "bytes"
        }
      ],
      "name": "onERC1155Received",
      "outputs": [
        {
          "internalType": "bytes4",
          "name": "",
          "type": "bytes4"
        }
      ],
      "stateMutability": "nonpayable",
      "type": "function"
    },
    {
      "inputs": [
        {
          "internalType": "address",
          "name": "",
          "type": "address"
        },
        {
          "internalType": "address",
          "name": "",
          "type": "address"
        },
        {
          "internalType": "uint256",
          "name": "",
          "type": "uint256"
        },
        {
          "internalType": "bytes",
          "name": "",
          "type": "bytes"
        }
      ],
      "name": "onERC721Received",
      "outputs": [
        {
          "internalType": "bytes4",
          "name": "",
          "type": "bytes4"
        }
      ],
      "stateMutability": "nonpayable",
      "type": "function"
    },
    {
      "inputs": [
        {
          "internalType": "uint256",
          "name": "",
          "type": "uint256"
        }
      ],
      "name": "preservationProposals",
      "outputs": [
        {
          "internalType": "string",
          "name": "language",
          "type": "string"
        },
        {
          "internalType": "uint256",
          "name": "fundingAmount",
          "type": "uint256"
        },
        {
          "internalType": "address",
          "name": "recipient",
          "type": "address"
        },
        {
          "internalType": "string",
          "name": "description",
          "type": "string"
        },
        {
          "internalType": "bool",
          "name": "executed",
          "type": "bool"
        }
      ],
      "stateMutability": "view",
      "type": "function"
    },
    {
      "inputs": [
        {
          "internalType": "uint256",
          "name": "proposalId",
          "type": "uint256"
        }
      ],
      "name": "proposalDeadline",
      "outputs": [
        {
          "internalType": "uint256",
          "name": "",
          "type": "uint256"
        }
      ],
      "stateMutability": "view",
      "type": "function"
    },
    {
      "inputs": [
        {
          "internalType": "uint256",
          "name": "proposalId",
          "type": "uint256"
        }
      ],
      "name": "proposalEta",
      "outputs": [
        {
          "internalType": "uint256",
          "name": "",
          "type": "uint256"
        }
      ],
      "stateMutability": "view",
      "type": "function"
    },
    {
      "inputs": [
        {
          "internalType": "uint256",
          "name": "",
          "type": "uint256"
        }
      ],
      "name": "proposalNeedsQueuing",
      "outputs": [
        {
          "internalType": "bool",
          "name": "",
          "type": "bool"
        }
      ],
      "stateMutability": "view",
      "type": "function"
    },
    {
      "inputs": [
        {
          "internalType": "uint256",
          "name": "proposalId",
          "type": "uint256"
        }
      ],
      "name": "proposalProposer",
      "outputs": [
        {
          "internalType": "address",
          "name": "",
          "type": "address"
        }
      ],
      "stateMutability": "view",
      "type": "function"
    },
    {
      "inputs": [
        {
          "internalType": "uint256",
          "name": "proposalId",
          "type": "uint256"
        }
      ],
      "name": "proposalSnapshot",
      "outputs": [
        {
          "internalType": "uint256",
          "name": "",
          "type": "uint256"
        }
      ],
      "stateMutability": "view",
      "type": "function"
    },
    {
      "inputs": [],
      "name": "proposalThreshold",
      "outputs": [
        {
          "internalType": "uint256",
          "name": "",
          "type": "uint256"
        }
      ],
      "stateMutability": "view",
      "type": "function"
    },
    {
      "inputs": [
        {
          "internalType": "uint256",
          "name": "proposalId",
          "type": "uint256"
        }
      ],
      "name": "proposalVotes",
      "outputs": [
        {
          "internalType": "uint256",
          "name": "againstVotes",
          "type": "uint256"
        },
        {
          "internalType": "uint256",
          "name": "forVotes",
          "type": "uint256"
        },
        {
          "internalType": "uint256",
          "name": "abstainVotes",
          "type": "uint256"
        }
      ],
      "stateMutability": "view",
      "type": "function"
    },
    {
      "inputs": [
        {
          "internalType": "address[]",
          "name": "targets",
          "type": "address[]"
        },
        {
          "internalType": "uint256[]",
          "name": "values",
          "type": "uint256[]"
        },
        {
          "internalType": "bytes[]",
          "name": "calldatas",
          "type": "bytes[]"
        },
        {
          "internalType": "string",
          "name": "description",
          "type": "string"
        }
      ],
      "name": "propose",
      "outputs": [
        {
          "internalType": "uint256",
          "name": "",
          "type": "uint256"
        }
      ],
      "stateMutability": "nonpayable",
      "type": "function"
    },
    {
      "inputs": [
        {
          "internalType": "string",
          "name": "language",
          "type": "string"
        },
        {
          "internalType": "uint256",
          "name": "initialFunding",
          "type": "uint256"
        },
        {
          "internalType": "string",
          "name": "description",
          "type": "string"
        }
      ],
      "name": "proposeAddLanguage",
      "outputs": [
        {
          "internalType": "uint256",
          "name": "",
          "type": "uint256"
        }
      ],
      "stateMutability": "nonpayable",
      "type": "function"
    },
    {
      "inputs": [
        {
          "internalType": "address[]",
          "name": "targets",
          "type": "address[]"
        },
        {
          "internalType": "uint256[]",
          "name": "values",
          "type": "uint256[]"
        },
        {
          "internalType": "bytes[]",
          "name": "calldatas",
          "type": "bytes[]"
        },
        {
          "internalType": "bytes32",
          "name": "descriptionHash",
          "type": "bytes32"
        }
      ],
      "name": "queue",
      "outputs": [
        {
          "internalType": "uint256",
          "name": "",
          "type": "uint256"
        }
      ],
      "stateMutability": "nonpayable",
      "type": "function"
    },
    {
      "inputs": [
        {
          "internalType": "uint256",
          "name": "blockNumber",
          "type": "uint256"
        }
      ],
      "name": "quorum",
      "outputs": [
        {
          "internalType": "uint256",
          "name": "",
          "type": "uint256"
        }
      ],
      "stateMutability": "view",
      "type": "function"
    },
    {
      "inputs": [],
      "name": "quorumDenominator",
      "outputs": [
        {
          "internalType": "uint256",
          "name": "",
          "type": "uint256"
        }
      ],
      "stateMutability": "view",
      "type": "function"
    },
    {
      "inputs": [
        {
          "internalType": "uint256",
          "name": "timepoint",
          "type": "uint256"
        }
      ],
      "name": "quorumNumerator",
      "outputs": [
        {
          "internalType": "uint256",
          "name": "",
          "type": "uint256"
        }
      ],
      "stateMutability": "view",
      "type": "function"
    },
    {
      "inputs": [],
      "name": "quorumNumerator",
      "outputs": [
        {
          "internalType": "uint256",
          "name": "",
          "type": "uint256"
        }
      ],
      "stateMutability": "view",
      "type": "function"
    },
    {
      "inputs": [
        {
          "internalType": "address",
          "name": "target",
          "type": "address"
        },
        {
          "internalType": "uint256",
          "name": "value",
          "type": "uint256"
        },
        {
          "internalType": "bytes",
          "name": "data",
          "type": "bytes"
        }
      ],
      "name": "relay",
      "outputs": [],
      "stateMutability": "payable",
      "type": "function"
    },
    {
      "inputs": [
        {
          "internalType": "uint256",
          "name": "newProposalThreshold",
          "type": "uint256"
        }
      ],
      "name": "setProposalThreshold",
      "outputs": [],
      "stateMutability": "nonpayable",
      "type": "function"
    },
    {
      "inputs": [
        {
          "internalType": "uint48",
          "name": "newVotingDelay",
          "type": "uint48"
        }
      ],
      "name": "setVotingDelay",
      "outputs": [],
      "stateMutability": "nonpayable",
      "type": "function"
    },
    {
      "inputs": [
        {
          "internalType": "uint32",
          "name": "newVotingPeriod",
          "type": "uint32"
        }
      ],
      "name": "setVotingPeriod",
      "outputs": [],
      "stateMutability": "nonpayable",
      "type": "function"
    },
    {
      "inputs": [
        {
          "internalType": "uint256",
          "name": "proposalId",
          "type": "uint256"
        }
      ],
      "name": "state",
      "outputs": [
        {
          "internalType": "enum IGovernor.ProposalState",
          "name": "",
          "type": "uint8"
        }
      ],
      "stateMutability": "view",
      "type": "function"
    },
    {
      "inputs": [
        {
          "internalType": "bytes4",
          "name": "interfaceId",
          "type": "bytes4"
        }
      ],
      "name": "supportsInterface",
      "outputs": [
        {
          "internalType": "bool",
          "name": "",
          "type": "bool"
        }
      ],
      "stateMutability": "view",
      "type": "function"
    },
    {
      "inputs": [],
      "name": "token",
      "outputs": [
        {
          "internalType": "contract IERC5805",
          "name": "",
          "type": "address"
        }
      ],
      "stateMutability": "view",
      "type": "function"
    },
    {
      "inputs": [],
      "name": "treasuryBalance",
      "outputs": [
        {
          "internalType": "uint256",
          "name": "",
          "type": "uint256"
        }
      ],
      "stateMutability": "view",
      "type": "function"
    },
    {
      "inputs": [
        {
          "internalType": "uint256",
          "name": "newQuorumNumerator",
          "type": "uint256"
        }
      ],
      "name": "updateQuorumNumerator",
      "outputs": [],
      "stateMutability": "nonpayable",
      "type": "function"
    },
    {
      "inputs": [],
      "name": "version",
      "outputs": [
        {
          "internalType": "string",
          "name": "",
          "type": "string"
        }
      ],
      "stateMutability": "view",
      "type": "function"
    },
    {
      "inputs": [],
      "name": "voiceSharesNFT",
      "outputs": [
        {
          "internalType": "contract VoiceSharesNFT",
          "name": "",
          "type": "address"
        }
      ],
      "stateMutability": "view",
      "type": "function"
    },
    {
      "inputs": [],
      "name": "votingDelay",
      "outputs": [
        {
          "internalType": "uint256",
          "name": "",
          "type": "uint256"
        }
      ],
      "stateMutability": "view",
      "type": "function"
    },
    {
      "inputs": [],
      "name": "votingPeriod",
      "outputs": [
        {
          "internalType": "uint256",
          "name": "",
          "type": "uint256"
        }
      ],
      "stateMutability": "view",
      "type": "function"
    },
    {
      "stateMutability": "payable",
      "type": "receive"
    }
  ],
  "bytecode": "0x6101c0604052348015610010575f5ffd5b5060405161510d38038061510d83398101604081905261002f916107be565b600482600161c4e069152d02c7e14af6800000604051806040016040528060098152602001684c696e67756144414f60b81b8152508061007361027a60201b60201c565b61007d825f610295565b6101205261008c816001610295565b61014052815160208084019190912060e052815190820120610100524660a05261011860e05161010051604080517f8b73c3c69bb8fe3d512ecc4cf759cc79239f7b179b0ffacaa9a75d522b39400f60208201529081019290925260608201524660808201523060a08201525f9060c00160405160208183030381529060405280519060200120905090565b60805250503060c052600361012d8282610887565b506101399050836102c7565b6101428261032d565b61014b816103d1565b5050506001600160a01b03166101605261016481610412565b506001600160a01b0391821661018052166101a052604080516254574960e81b8152600d6003808301829052835192839003602390810184208054600160ff199182168117909255622ca7a960e91b86528584018590528651958690038301862080548216831790556253574160e81b86528584018590528651958690038301862080548216831790556248415560e81b8652858401859052865195869003830186208054821683179055620829a960eb1b86528584018590528651958690038301862080548216831790556216955360ea1b86528584018590528651958690038301862080548216831790556224a3a160e91b86529285019390935293519283900390930190912080549092161790556109dd565b6040805180820190915260018152603160f81b602082015290565b5f6020835110156102b0576102a9836104a7565b90506102c1565b816102bb8482610887565b5060ff90505b92915050565b6008546040805165ffffffffffff928316815291831660208301527fc565b045403dc03c2eea82b81a0465edad9e2e7fc4d97e11421c209da93d7a93910160405180910390a16008805465ffffffffffff191665ffffffffffff92909216919091179055565b8063ffffffff165f0361035a5760405163f1cfbf0560e01b81525f60048201526024015b60405180910390fd5b6008546040805163ffffffff66010000000000009093048316815291831660208301527f7e3f7f0708a84de9203036abaa450dccc85ad5ff52f78c170f3edb55cf5e8828910160405180910390a16008805463ffffffff90921666010000000000000263ffffffff60301b19909216919091179055565b60075460408051918252602082018390527fccb45da8d5717e6c4544694297c4ba5cf151d455c9bb0ed4fc7a38411bc05461910160405180910390a1600755565b60648082111561043f5760405163243e544560e01b81526004810183905260248101829052604401610351565b5f6104486104e4565b90506104676104556104fd565b61045e85610577565b600a91906105ae565b505060408051828152602081018590527f0553476bf02ef2726e8ce5ced78d63e26e602e4a2257b1f559418e24b4633997910160405180910390a1505050565b5f5f829050601f815111156104d1578260405163305a27a960e01b81526004016103519190610941565b80516104dc82610976565b179392505050565b5f6104ef600a6105c8565b6001600160d01b0316905090565b5f6105086101605190565b6001600160a01b03166391ddadf46040518163ffffffff1660e01b8152600401602060405180830381865afa925050508015610561575060408051601f3d908101601f1916820190925261055e91810190610999565b60015b6105725761056d610610565b905090565b919050565b5f6001600160d01b038211156105aa576040516306dfcc6560e41b815260d0600482015260248101839052604401610351565b5090565b5f806105bb85858561061a565b915091505b935093915050565b80545f908015610607576105ee836105e16001846109be565b5f91825260209091200190565b54660100000000000090046001600160d01b0316610609565b5f5b9392505050565b5f61056d43610776565b82545f9081908015610719575f610636876105e16001856109be565b805490915065ffffffffffff80821691660100000000000090046001600160d01b031690881682111561067c57604051632520601d60e01b815260040160405180910390fd5b8765ffffffffffff168265ffffffffffff16036106b857825465ffffffffffff1666010000000000006001600160d01b0389160217835561070b565b6040805180820190915265ffffffffffff808a1682526001600160d01b03808a1660208085019182528d54600181018f555f8f815291909120945191519092166601000000000000029216919091179101555b94508593506105c092505050565b50506040805180820190915265ffffffffffff80851682526001600160d01b0380851660208085019182528854600181018a555f8a81529182209551925190931666010000000000000291909316179201919091559050816105c0565b5f65ffffffffffff8211156105aa576040516306dfcc6560e41b81526030600482015260248101839052604401610351565b80516001600160a01b0381168114610572575f5ffd5b5f5f604083850312156107cf575f5ffd5b6107d8836107a8565b91506107e6602084016107a8565b90509250929050565b634e487b7160e01b5f52604160045260245ffd5b600181811c9082168061081757607f821691505b60208210810361083557634e487b7160e01b5f52602260045260245ffd5b50919050565b601f82111561088257805f5260205f20601f840160051c810160208510156108605750805b601f840160051c820191505b8181101561087f575f815560010161086c565b50505b505050565b81516001600160401b038111156108a0576108a06107ef565b6108b4816108ae8454610803565b8461083b565b6020601f8211600181146108e6575f83156108cf5750848201515b5f19600385901b1c1916600184901b17845561087f565b5f84815260208120601f198516915b8281101561091557878501518255602094850194600190920191016108f5565b508482101561093257868401515f19600387901b60f8161c191681555b50505050600190811b01905550565b602081525f82518060208401528060208501604085015e5f604082850101526040601f19601f83011684010191505092915050565b80516020808301519190811015610835575f1960209190910360031b1b16919050565b5f602082840312156109a9575f5ffd5b815165ffffffffffff81168114610609575f5ffd5b818103818111156102c157634e487b7160e01b5f52601160045260245ffd5b60805160a05160c05160e05161010051610120516101405161016051610180516101a0516146a5610a685f395f61043001525f61051101525f8181610c0c01528181611243015281816117530152818161256a015261275b01525f6124ae01525f61248201525f612fea01525f612fc201525f612f1d01525f612f4701525f612f7101526146a55ff3fe608060405260043610610374575f3560e01c80637d5e81e2116101c8578063b58131b0116100fd578063e540d01d1161009d578063f23a6e611161006d578063f23a6e6114610b95578063f8ce560a14610bc0578063fa68c81214610bdf578063fc0c546a14610bfe575f5ffd5b8063e540d01d14610b19578063eb21889514610b38578063eb9019d414610b57578063ece40cc114610b76575f5ffd5b8063c28bc2fa116100d8578063c28bc2fa14610a6f578063c59057e414610a82578063dd4e2ba514610aa1578063deaaa7cc14610ae6575f5ffd5b8063b58131b014610a11578063bc197c8114610a25578063c01f9e3714610a50575f5ffd5b80639a802a6d11610168578063a8f8a66811610143578063a8f8a66814610966578063a9a9529414610985578063ab58fb8e146109a4578063b4c0cea2146109da575f5ffd5b80639a802a6d146108f9578063a0d2ba0c14610918578063a7713a7014610952575f5ffd5b8063879ecc93116101a3578063879ecc931461087d5780638ff262e31461089c57806391ddadf4146108bb57806397c3d334146108e6575f5ffd5b80637d5e81e2146108035780637ecebe001461082257806384b0196e14610856575f5ffd5b80633b4d01a7116102a9578063544ffc9c116102495780635f398a14116102195780635f398a141461078757806360c4247f146107a657806379051887146107c55780637b3c71d3146107e4575f5ffd5b8063544ffc9c146106e657806354fd4d501461072057806356781388146107495780635b8d0e0d14610768575f5ffd5b806342b4632e1161028457806342b4632e1461064c578063438596321461066b578063452115d6146106b35780634bf5d7e9146106d2575f5ffd5b80633b4d01a7146105c15780633bfdab8a146105f05780633e4f49e614610620575f5ffd5b8063160cbed7116103145780632d63f693116102ef5780632d63f693146105465780632fe3e26114610565578063313dab20146105985780633932abb1146105ad575f5ffd5b8063160cbed7146104e1578063191b9287146105005780632656227d14610533575f5ffd5b806306fdde031161034f57806306fdde03146103fe57806308fa19d71461041f578063143489d01461046a578063150b7a021461049e575f5ffd5b806301ffc9a71461038057806302a251a3146103b457806306f3f9e6146103df575f5ffd5b3661037c575b005b5f5ffd5b34801561038b575f5ffd5b5061039f61039a3660046135ab565b610c30565b60405190151581526020015b60405180910390f35b3480156103bf575f5ffd5b50600854600160301b900463ffffffff165b6040519081526020016103ab565b3480156103ea575f5ffd5b5061037a6103f93660046135d2565b610ca1565b348015610409575f5ffd5b50610412610cb5565b6040516103ab9190613617565b34801561042a575f5ffd5b506104527f000000000000000000000000000000000000000000000000000000000000000081565b6040516001600160a01b0390911681526020016103ab565b348015610475575f5ffd5b506104526104843660046135d2565b5f908152600460205260409020546001600160a01b031690565b3480156104a9575f5ffd5b506104c86104b83660046136fd565b630a85bd0160e11b949350505050565b6040516001600160e01b031990911681526020016103ab565b3480156104ec575f5ffd5b506103d16104fb3660046138bd565b610d45565b34801561050b575f5ffd5b506104527f000000000000000000000000000000000000000000000000000000000000000081565b6103d16105413660046138bd565b610d8d565b348015610551575f5ffd5b506103d16105603660046135d2565b610eb5565b348015610570575f5ffd5b506103d17f3e83946653575f9a39005e1545185629e92736b7528ab20ca3816f315424a81181565b3480156105a3575f5ffd5b506103d1600b5481565b3480156105b8575f5ffd5b506103d1610ed5565b3480156105cc575f5ffd5b506105e06105db3660046135d2565b610ee7565b6040516103ab9493929190613950565b3480156105fb575f5ffd5b5061060f61060a3660046135d2565b610f3b565b6040516103ab959493929190613974565b34801561062b575f5ffd5b5061063f61063a3660046135d2565b611085565b6040516103ab91906139f7565b348015610657575f5ffd5b5061039f610666366004613a05565b6111bb565b348015610676575f5ffd5b5061039f610685366004613a1e565b5f8281526009602090815260408083206001600160a01b038516845260030190915290205460ff1692915050565b3480156106be575f5ffd5b506103d16106cd3660046138bd565b6111de565b3480156106dd575f5ffd5b5061041261123f565b3480156106f1575f5ffd5b506107056107003660046135d2565b6112ff565b604080519384526020840192909252908201526060016103ab565b34801561072b575f5ffd5b506040805180820190915260018152603160f81b6020820152610412565b348015610754575f5ffd5b506103d1610763366004613a58565b611324565b348015610773575f5ffd5b506103d1610782366004613abd565b61134b565b348015610792575f5ffd5b506103d16107a1366004613b77565b611408565b3480156107b1575f5ffd5b506103d16107c03660046135d2565b611450565b3480156107d0575f5ffd5b5061037a6107df366004613c0b565b61145c565b3480156107ef575f5ffd5b506103d16107fe366004613c26565b61146d565b34801561080e575f5ffd5b506103d161081d366004613c7b565b6114bd565b34801561082d575f5ffd5b506103d161083c366004613a05565b6001600160a01b03165f9081526002602052604090205490565b348015610861575f5ffd5b5061086a611573565b6040516103ab9796959493929190613d52565b348015610888575f5ffd5b5061037a610897366004613dc1565b6115b5565b3480156108a7575f5ffd5b506103d16108b6366004613e02565b6116f8565b3480156108c6575f5ffd5b506108cf611750565b60405165ffffffffffff90911681526020016103ab565b3480156108f1575f5ffd5b5060646103d1565b348015610904575f5ffd5b506103d1610913366004613e4d565b6117d7565b348015610923575f5ffd5b5061039f610932366004613e9f565b8051602081830181018051600d8252928201919093012091525460ff1681565b34801561095d575f5ffd5b506103d16117ed565b348015610971575f5ffd5b506103d16109803660046138bd565b611806565b348015610990575f5ffd5b5061039f61099f3660046135d2565b505f90565b3480156109af575f5ffd5b506103d16109be3660046135d2565b5f9081526004602052604090206001015465ffffffffffff1690565b3480156109e5575f5ffd5b506103d16109f4366004613e9f565b8051602081830181018051600e8252928201919093012091525481565b348015610a1c575f5ffd5b506103d1611813565b348015610a30575f5ffd5b506104c8610a3f366004613ed0565b63bc197c8160e01b95945050505050565b348015610a5b575f5ffd5b506103d1610a6a3660046135d2565b61181d565b61037a610a7d366004613f63565b61185f565b348015610a8d575f5ffd5b506103d1610a9c3660046138bd565b6118db565b348015610aac575f5ffd5b506040805180820190915260208082527f737570706f72743d627261766f2671756f72756d3d666f722c6162737461696e90820152610412565b348015610af1575f5ffd5b506103d17ff2aad550cf55f045cb27e9c559f9889fdfb6e6cdaa032301d6ea397784ae51d781565b348015610b24575f5ffd5b5061037a610b33366004613fa0565b611914565b348015610b43575f5ffd5b506103d1610b52366004613fc3565b611925565b348015610b62575f5ffd5b506103d1610b71366004614018565b611a51565b348015610b81575f5ffd5b5061037a610b903660046135d2565b611a70565b348015610ba0575f5ffd5b506104c8610baf366004614040565b63f23a6e6160e01b95945050505050565b348015610bcb575f5ffd5b506103d1610bda3660046135d2565b611a81565b348015610bea575f5ffd5b5061037a610bf9366004614093565b611a8b565b348015610c09575f5ffd5b507f0000000000000000000000000000000000000000000000000000000000000000610452565b5f6001600160e01b031982166366defe7760e11b1480610c6057506001600160e01b031982166332a2ad4360e11b145b80610c7b57506001600160e01b03198216630271189760e51b145b80610c9657506301ffc9a760e01b6001600160e01b03198316145b92915050565b905090565b610ca9611bdb565b610cb281611c12565b50565b606060038054610cc4906140e5565b80601f0160208091040260200160405190810160405280929190818152602001828054610cf0906140e5565b8015610d3b5780601f10610d1257610100808354040283529160200191610d3b565b820191905f5260205f20905b815481529060010190602001808311610d1e57829003601f168201915b5050505050905090565b5f5f610d5386868686611806565b9050610d6881610d636004611c9f565b611cc1565b505f604051634844252360e11b815260040160405180910390fd5b5095945050505050565b5f5f610d9b86868686611806565b9050610dbb81610dab6005611c9f565b610db56004611c9f565b17611cc1565b505f818152600460205260409020805460ff60f01b1916600160f01b17905530610de23090565b6001600160a01b031614610e6b575f5b8651811015610e6957306001600160a01b0316878281518110610e1757610e1761411d565b60200260200101516001600160a01b031603610e6157610e61858281518110610e4257610e4261411d565b6020026020010151805190602001206005611cfe90919063ffffffff16565b600101610df2565b505b610e788187878787611d5f565b6040518181527f712ae1383f79ac853f8d882153778e0260ef8f03b504e2866e0593e04d2b291f906020015b60405180910390a195945050505050565b5f90815260046020526040902054600160a01b900465ffffffffffff1690565b5f610c9c60085465ffffffffffff1690565b5f5f5f606084610ef686610eb5565b610eff8761181d565b60405180604001604052806014815260200173283937b837b9b0b6103232b9b1b934b83a34b7b760611b81525093509350935093509193509193565b600c6020525f9081526040902080548190610f55906140e5565b80601f0160208091040260200160405190810160405280929190818152602001828054610f81906140e5565b8015610fcc5780601f10610fa357610100808354040283529160200191610fcc565b820191905f5260205f20905b815481529060010190602001808311610faf57829003601f168201915b5050505060018301546002840154600385018054949592946001600160a01b03909216935090610ffb906140e5565b80601f0160208091040260200160405190810160405280929190818152602001828054611027906140e5565b80156110725780601f1061104957610100808354040283529160200191611072565b820191905f5260205f20905b81548152906001019060200180831161105557829003601f168201915b5050506004909301549192505060ff1685565b5f818152600460205260408120805460ff600160f01b8204811691600160f81b90041681156110b957506007949350505050565b80156110ca57506002949350505050565b5f6110d486610eb5565b9050805f036110fe57604051636ad0607560e01b8152600481018790526024015b60405180910390fd5b5f611107611750565b65ffffffffffff16905080821061112457505f9695505050505050565b5f61112e8861181d565b905081811061114557506001979650505050505050565b61114e88611e34565b158061116d57505f888152600960205260409020805460019091015411155b1561118057506003979650505050505050565b5f8881526004602052604090206001015465ffffffffffff165f036111ad57506004979650505050505050565b506005979650505050505050565b5f806111cc83610b71600142614145565b90506111d6611813565b111592915050565b5f5f6111ec86868686611806565b9050336111f98282611e6a565b61122857604051638fe5d8a960e01b8152600481018390526001600160a01b03821660248201526044016110f5565b61123487878787611eaf565b979650505050505050565b60607f00000000000000000000000000000000000000000000000000000000000000006001600160a01b0316634bf5d7e96040518163ffffffff1660e01b81526004015f60405180830381865afa9250505080156112be57506040513d5f823e601f3d908101601f191682016040526112bb9190810190614158565b60015b6112fa575060408051808201909152601d81527f6d6f64653d626c6f636b6e756d6265722666726f6d3d64656661756c74000000602082015290565b919050565b5f818152600960205260409020805460018201546002909201549091905b9193909250565b5f8033905061134384828560405180602001604052805f815250611f5e565b949350505050565b5f61139188888888888080601f0160208091040260200160405190810160405280939291908181526020018383808284375f920191909152508a9250899150611f7f9050565b6113b9576040516394ab6c0760e01b81526001600160a01b03871660048201526024016110f5565b6113fc88878988888080601f0160208091040260200160405190810160405280939291908181526020018383808284375f920191909152508a925061204c915050565b98975050505050505050565b5f8033905061123487828888888080601f0160208091040260200160405190810160405280939291908181526020018383808284375f920191909152508a925061204c915050565b5f610c96600a8361212a565b611464611bdb565b610cb281612177565b5f803390506114b386828787878080601f0160208091040260200160405190810160405280939291908181526020018383808284375f92019190915250611f5e92505050565b9695505050505050565b5f336114c981846121dd565b6114f15760405163d9b3955760e01b81526001600160a01b03821660048201526024016110f5565b5f6114fa611813565b90508015611566575f611528836001611511611750565b61151b91906141cc565b65ffffffffffff16611a51565b90508181101561156457604051636121770b60e11b81526001600160a01b038416600482015260248101829052604481018390526064016110f5565b505b6112348787878786612261565b5f6060805f5f5f606061158461247b565b61158c6124a7565b604080515f80825260208201909252600f60f81b9b939a50919850469750309650945092509050565b6115bd611bdb565b600d826040516115cd9190614201565b9081526040519081900360200190205460ff161561162d5760405162461bcd60e51b815260206004820152601960248201527f4c616e677561676520616c726561647920617070726f7665640000000000000060448201526064016110f5565b6001600d8360405161163f9190614201565b908152604051908190036020018120805492151560ff19909316929092179091558190600e90611670908590614201565b9081526020016040518091039020819055507fac3f36b4927972c7b85973cc359b10a0c62e6c2a70fec63a5298915189fd6f4e826040516116b19190613617565b60405180910390a17f27dad0008d7dfcfc00b6796ac7fcabff793c16414a3851683c2fc8107de1c43e8282306040516116ec9392919061420c565b60405180910390a15050565b5f611705858585856124d4565b61172d576040516394ab6c0760e01b81526001600160a01b03841660048201526024016110f5565b61174785848660405180602001604052805f815250611f5e565b95945050505050565b5f7f00000000000000000000000000000000000000000000000000000000000000006001600160a01b03166391ddadf46040518163ffffffff1660e01b8152600401602060405180830381865afa9250505080156117cb575060408051601f3d908101601f191682019092526117c89181019061423e565b60015b6112fa57610c9c61255d565b5f6117e3848484612567565b90505b9392505050565b5f6117f8600a6125fa565b6001600160d01b0316905090565b5f611747858585856118db565b5f610c9c60075490565b5f8181526004602052604081205461185190600160d01b810463ffffffff1690600160a01b900465ffffffffffff16614259565b65ffffffffffff1692915050565b611867611bdb565b5f5f856001600160a01b0316858585604051611884929190614277565b5f6040518083038185875af1925050503d805f81146118be576040519150601f19603f3d011682016040523d82523d5f602084013e6118c3565b606091505b50915091506118d2828261263e565b50505050505050565b5f848484846040516020016118f39493929190614319565b60408051601f19818403018152919052805160209091012095945050505050565b61191c611bdb565b610cb28161265a565b6040805160018082528183019092525f918291906020808301908036833750506040805160018082528183019092529293505f9291506020808301908036833750506040805160018082528183019092529293505f929150602082015b606081526020019060019003908161198257905050905030835f815181106119ac576119ac61411d565b60200260200101906001600160a01b031690816001600160a01b0316815250505f825f815181106119df576119df61411d565b60200260200101818152505086866040516024016119fe929190614363565b60408051601f198184030181529190526020810180516001600160e01b031663879ecc9360e01b179052815182905f90611a3a57611a3a61411d565b6020026020010181905250611234838383886114bd565b5f6117e68383611a6b60408051602081019091525f815290565b612567565b611a78611bdb565b610cb2816126f6565b5f610c9682612737565b611a93611bdb565b600d83604051611aa39190614201565b9081526040519081900360200190205460ff16611afa5760405162461bcd60e51b815260206004820152601560248201527413185b99dd5859d9481b9bdd08185c1c1c9bdd9959605a1b60448201526064016110f5565b600e83604051611b0a9190614201565b908152602001604051809103902054821115611b685760405162461bcd60e51b815260206004820152601b60248201527f496e73756666696369656e74206c616e67756167652066756e6473000000000060448201526064016110f5565b81600e84604051611b799190614201565b90815260200160405180910390205f828254611b959190614145565b90915550506040517f27dad0008d7dfcfc00b6796ac7fcabff793c16414a3851683c2fc8107de1c43e90611bce9085908590859061420c565b60405180910390a1505050565b303314611bfd576040516347096e4760e01b81523360048201526024016110f5565b565b80611c0a60056127d4565b03611bff5750565b606480821115611c3f5760405163243e544560e01b815260048101839052602481018290526044016110f5565b5f611c486117ed565b9050611c67611c55611750565b611c5e85612841565b600a9190612878565b505060408051828152602081018590527f0553476bf02ef2726e8ce5ced78d63e26e602e4a2257b1f559418e24b46339979101611bce565b5f816007811115611cb257611cb26139c3565b600160ff919091161b92915050565b5f5f611ccc84611085565b90505f83611cd983611c9f565b16036117e6578381846040516331b75e4d60e01b81526004016110f593929190614384565b81546001600160801b03600160801b820481169181166001830190911603611d2a57611d2a6041612892565b6001600160801b038082165f90815260018086016020526040909120939093558354919092018216600160801b029116179055565b5f5b8451811015611e2c575f5f868381518110611d7e57611d7e61411d565b60200260200101516001600160a01b0316868481518110611da157611da161411d565b6020026020010151868581518110611dbb57611dbb61411d565b6020026020010151604051611dd09190614201565b5f6040518083038185875af1925050503d805f8114611e0a576040519150601f19603f3d011682016040523d82523d5f602084013e611e0f565b606091505b5091509150611e1e828261263e565b505050806001019050611d61565b505050505050565b5f81815260096020526040812060028101546001820154611e5591906143a6565b611e61610bda85610eb5565b11159392505050565b5f80611e7584611085565b6007811115611e8657611e866139c3565b1480156117e65750505f91825260046020526040909120546001600160a01b0391821691161490565b5f5f611ebd86868686611806565b9050611f0b81611ecd6007611c9f565b611ed76006611c9f565b611ee16002611c9f565b6001611eee6007826143b9565b611ef99060026144ad565b611f039190614145565b181818611cc1565b505f818152600460205260409081902080546001600160f81b0316600160f81b179055517f789cf55be980739dad1d0699b93b58e806b51c9d96619bfa8fe0a28abaa7b30c90610ea49083815260200190565b5f61174785858585611f7a60408051602081019091525f815290565b61204c565b5f611234856120467f3e83946653575f9a39005e1545185629e92736b7528ab20ca3816f315424a8118a8a8a611fd18c6001600160a01b03165f90815260026020526040902080546001810190915590565b8b516020808e01919091208c518d83012060405161202b98979695949301968752602087019590955260ff9390931660408601526001600160a01b03919091166060850152608084015260a083015260c082015260e00190565b604051602081830303815290604052805190602001206128a3565b846128cf565b5f61205b86610d636001611c9f565b505f6120708661206a89610eb5565b85612567565b90505f612080888888858861293f565b905083515f036120d657866001600160a01b03167fb8e138887d0aa13bab447e82de9d5c1777041ecd21ca36ba824ff1e6c07ddda4898884896040516120c994939291906144bb565b60405180910390a2611234565b866001600160a01b03167fe2babfbac5889a709b63bb7f598b324e08bc5a4fb9ec647fb3cbc9ec07eb871289888489896040516121179594939291906144e2565b60405180910390a2979650505050505050565b5f5f5f61213685612a3b565b9250925050838265ffffffffffff1611156121635761215e61215785612a93565b8690612ac5565b612165565b805b6001600160d01b031695945050505050565b6008546040805165ffffffffffff928316815291831660208301527fc565b045403dc03c2eea82b81a0465edad9e2e7fc4d97e11421c209da93d7a93910160405180910390a16008805465ffffffffffff191665ffffffffffff92909216919091179055565b80515f9060348110156121f4576001915050610c96565b60131981840101516001600160b01b03198116692370726f706f7365723d60b01b1461222557600192505050610c96565b5f5f61223586602a860386612b67565b915091508115806112345750866001600160a01b0316816001600160a01b031614979650505050505050565b5f6122758686868680519060200120611806565b90508451865114158061228a57508351865114155b8061229457508551155b156122c957855184518651604051630447b05d60e41b81526004810193909352602483019190915260448201526064016110f5565b5f81815260046020526040902054600160a01b900465ffffffffffff161561231257806122f582611085565b6040516331b75e4d60e01b81526110f59291905f90600401614384565b5f61231b610ed5565b612323611750565b65ffffffffffff1661233591906143a6565b90505f61234f60085463ffffffff600160301b9091041690565b5f84815260046020526040902080546001600160a01b0319166001600160a01b03871617815590915061238183612a93565b815465ffffffffffff91909116600160a01b0265ffffffffffff60a01b199091161781556123ae82612c10565b815463ffffffff91909116600160d01b0263ffffffff60d01b1990911617815588517f7d84a6263ae0d98d3329bd7b46bb4e8d6f98cd35a7adb45c274c8b7fd5ebd5e090859087908c908c906001600160401b038111156124115761241161363f565b60405190808252806020026020018201604052801561244457816020015b606081526020019060019003908161242f5790505b508c896124518a826143a6565b8e6040516124679998979695949392919061451b565b60405180910390a150505095945050505050565b6060610c9c7f00000000000000000000000000000000000000000000000000000000000000005f612c40565b6060610c9c7f00000000000000000000000000000000000000000000000000000000000000006001612c40565b5f611747836120467ff2aad550cf55f045cb27e9c559f9889fdfb6e6cdaa032301d6ea397784ae51d78888886125268a6001600160a01b03165f90815260026020526040902080546001810190915590565b60408051602081019690965285019390935260ff90911660608401526001600160a01b0316608083015260a082015260c00161202b565b5f610c9c43612a93565b5f7f0000000000000000000000000000000000000000000000000000000000000000604051630748d63560e31b81526001600160a01b038681166004830152602482018690529190911690633a46b1a890604401602060405180830381865afa1580156125d6573d5f5f3e3d5ffd5b505050506040513d601f19601f820116820180604052508101906117e391906145f6565b80545f9080156126365761262083612613600184614145565b5f91825260209091200190565b54600160301b90046001600160d01b03166117e6565b5f9392505050565b6060826126535761264e82612ce9565b610c96565b5080610c96565b8063ffffffff165f036126825760405163f1cfbf0560e01b81525f60048201526024016110f5565b6008546040805163ffffffff600160301b9093048316815291831660208301527f7e3f7f0708a84de9203036abaa450dccc85ad5ff52f78c170f3edb55cf5e8828910160405180910390a16008805463ffffffff909216600160301b0269ffffffff00000000000019909216919091179055565b60075460408051918252602082018390527fccb45da8d5717e6c4544694297c4ba5cf151d455c9bb0ed4fc7a38411bc05461910160405180910390a1600755565b604051632394e7a360e21b8152600481018290525f90610c96906001600160a01b037f00000000000000000000000000000000000000000000000000000000000000001690638e539e8c90602401602060405180830381865afa1580156127a0573d5f5f3e3d5ffd5b505050506040513d601f19601f820116820180604052508101906127c491906145f6565b6127cd84611450565b6064612d11565b80545f906001600160801b0380821691600160801b90041681036127fc576127fc6031612892565b6001600160801b038181165f908152600185810160205260408220805492905585546fffffffffffffffffffffffffffffffff19169301909116919091179092555090565b5f6001600160d01b03821115612874576040516306dfcc6560e41b815260d06004820152602481018390526044016110f5565b5090565b5f80612885858585612dc1565b915091505b935093915050565b634e487b715f52806020526024601cfd5b5f610c966128af612f11565b8360405161190160f01b8152600281019290925260228201526042902090565b5f836001600160a01b03163b5f0361292d575f5f6128ed858561303a565b5090925090505f816003811115612906576129066139c3565b1480156129245750856001600160a01b0316826001600160a01b0316145b925050506117e6565b612938848484613083565b90506117e6565b5f8581526009602090815260408083206001600160a01b03881684526003810190925282205460ff1615612991576040516371c6af4960e01b81526001600160a01b03871660048201526024016110f5565b6001600160a01b0386165f9081526003820160205260409020805460ff1916600117905560ff85166129da5783815f015f8282546129cf91906143a6565b90915550612a309050565b5f1960ff8616016129f85783816001015f8282546129cf91906143a6565b60011960ff861601612a175783816002015f8282546129cf91906143a6565b6040516303599be160e11b815260040160405180910390fd5b509195945050505050565b80545f9081908190808203612a59575f5f5f9350935093505061131d565b5f612a6986612613600185614145565b546001955065ffffffffffff81169450600160301b90046001600160d01b0316925061131d915050565b5f65ffffffffffff821115612874576040516306dfcc6560e41b815260306004820152602481018390526044016110f5565b81545f9081816005811115612b21575f612ade84613159565b612ae89085614145565b5f8881526020902090915081015465ffffffffffff9081169087161015612b1157809150612b1f565b612b1c8160016143a6565b92505b505b5f612b2e878785856132b1565b90508015612b5b57612b4587612613600184614145565b54600160301b90046001600160d01b0316611234565b505f9695505050505050565b5f5f8451831180612b7757508284115b15612b8657505f90508061288a565b5f612b928560016143a6565b84118015612bba575061060f60f31b612bae8787016020015190565b6001600160f01b031916145b90505f612bca821515600261460d565b612bd59060286143a6565b905080612be28787614145565b03612c03575f5f612bf4898989613310565b909650945061288a9350505050565b5f5f93509350505061288a565b5f63ffffffff821115612874576040516306dfcc6560e41b815260206004820152602481018390526044016110f5565b606060ff8314612c5a57612c53836133d1565b9050610c96565b818054612c66906140e5565b80601f0160208091040260200160405190810160405280929190818152602001828054612c92906140e5565b8015612cdd5780601f10612cb457610100808354040283529160200191612cdd565b820191905f5260205f20905b815481529060010190602001808311612cc057829003601f168201915b50505050509050610c96565b805115612cf857805160208201fd5b60405163d6bda27560e01b815260040160405180910390fd5b5f5f5f612d1e868661340e565b91509150815f03612d4257838181612d3857612d38614624565b04925050506117e6565b818411612d5957612d596003851502601118612892565b5f848688095f868103871696879004966002600389028118808a02820302808a02820302808a02820302808a02820302808a02820302808a02909103029181900381900460010185841190960395909502919093039390930492909217029150509392505050565b82545f9081908015612eb7575f612ddd87612613600185614145565b805490915065ffffffffffff80821691600160301b90046001600160d01b0316908816821115612e2057604051632520601d60e01b815260040160405180910390fd5b8765ffffffffffff168265ffffffffffff1603612e5957825465ffffffffffff16600160301b6001600160d01b03891602178355612ea9565b6040805180820190915265ffffffffffff808a1682526001600160d01b03808a1660208085019182528d54600181018f555f8f81529190912094519151909216600160301b029216919091179101555b945085935061288a92505050565b50506040805180820190915265ffffffffffff80851682526001600160d01b0380851660208085019182528854600181018a555f8a815291822095519251909316600160301b02919093161792019190915590508161288a565b5f306001600160a01b037f000000000000000000000000000000000000000000000000000000000000000016148015612f6957507f000000000000000000000000000000000000000000000000000000000000000046145b15612f9357507f000000000000000000000000000000000000000000000000000000000000000090565b610c9c604080517f8b73c3c69bb8fe3d512ecc4cf759cc79239f7b179b0ffacaa9a75d522b39400f60208201527f0000000000000000000000000000000000000000000000000000000000000000918101919091527f000000000000000000000000000000000000000000000000000000000000000060608201524660808201523060a08201525f9060c00160405160208183030381529060405280519060200120905090565b5f5f5f8351604103613071576020840151604085015160608601515f1a6130638882858561342a565b95509550955050505061307c565b505081515f91506002905b9250925092565b5f5f5f856001600160a01b031685856040516024016130a3929190614638565b60408051601f198184030181529181526020820180516001600160e01b0316630b135d3f60e11b179052516130d89190614201565b5f60405180830381855afa9150503d805f8114613110576040519150601f19603f3d011682016040523d82523d5f602084013e613115565b606091505b509150915081801561312957506020815110155b80156114b357508051630b135d3f60e11b9061314e90830160209081019084016145f6565b149695505050505050565b5f60018211613166575090565b816001600160801b821061317f5760809190911c9060401b5b68010000000000000000821061319a5760409190911c9060201b5b64010000000082106131b15760209190911c9060101b5b6201000082106131c65760109190911c9060081b5b61010082106131da5760089190911c9060041b5b601082106131ed5760049190911c9060021b5b600482106131f95760011b5b600302600190811c9081858161321157613211614624565b048201901c9050600181858161322957613229614624565b048201901c9050600181858161324157613241614624565b048201901c9050600181858161325957613259614624565b048201901c9050600181858161327157613271614624565b048201901c9050600181858161328957613289614624565b048201901c90506132a88185816132a2576132a2614624565b04821190565b90039392505050565b5f5b81831015613308575f6132c684846134f2565b5f8781526020902090915065ffffffffffff86169082015465ffffffffffff1611156132f457809250613302565b6132ff8160016143a6565b93505b506132b3565b509392505050565b5f80848161331f8660016143a6565b85118015613347575061060f60f31b61333b8388016020015190565b6001600160f01b031916145b90505f613357821515600261460d565b90505f80613365838a6143a6565b90505b878110156133c0575f6133866133818784016020015190565b61350c565b9050600f8160ff1611156133a5575f5f9750975050505050505061288a565b6133b060108461460d565b60ff909116019150600101613368565b506001999098509650505050505050565b60605f6133dd83613584565b6040805160208082528183019092529192505f91906020820181803683375050509182525060208101929092525090565b5f805f1983850993909202808410938190039390930393915050565b5f80807f7fffffffffffffffffffffffffffffff5d576e7357a4501ddfe92f46681b20a084111561346357505f915060039050826134e8565b604080515f808252602082018084528a905260ff891692820192909252606081018790526080810186905260019060a0016020604051602081039080840390855afa1580156134b4573d5f5f3e3d5ffd5b5050604051601f1901519150506001600160a01b0381166134df57505f9250600191508290506134e8565b92505f91508190505b9450945094915050565b5f6135006002848418614650565b6117e6908484166143a6565b5f60f882901c602f811180156135255750603a8160ff16105b1561353357602f1901610c96565b60608160ff16118015613549575060678160ff16105b156135575760561901610c96565b60408160ff1611801561356d575060478160ff16105b1561357b5760361901610c96565b5060ff92915050565b5f60ff8216601f811115610c9657604051632cd44ac360e21b815260040160405180910390fd5b5f602082840312156135bb575f5ffd5b81356001600160e01b0319811681146117e6575f5ffd5b5f602082840312156135e2575f5ffd5b5035919050565b5f81518084528060208401602086015e5f602082860101526020601f19601f83011685010191505092915050565b602081525f6117e660208301846135e9565b80356001600160a01b03811681146112fa575f5ffd5b634e487b7160e01b5f52604160045260245ffd5b604051601f8201601f191681016001600160401b038111828210171561367b5761367b61363f565b604052919050565b5f6001600160401b0382111561369b5761369b61363f565b50601f01601f191660200190565b5f82601f8301126136b8575f5ffd5b8135602083015f6136d06136cb84613683565b613653565b90508281528583830111156136e3575f5ffd5b828260208301375f92810160200192909252509392505050565b5f5f5f5f60808587031215613710575f5ffd5b61371985613629565b935061372760208601613629565b92506040850135915060608501356001600160401b03811115613748575f5ffd5b613754878288016136a9565b91505092959194509250565b5f6001600160401b038211156137785761377861363f565b5060051b60200190565b5f82601f830112613791575f5ffd5b813561379f6136cb82613760565b8082825260208201915060208360051b8601019250858311156137c0575f5ffd5b602085015b83811015610d83576137d681613629565b8352602092830192016137c5565b5f82601f8301126137f3575f5ffd5b81356138016136cb82613760565b8082825260208201915060208360051b860101925085831115613822575f5ffd5b602085015b83811015610d83578035835260209283019201613827565b5f82601f83011261384e575f5ffd5b813561385c6136cb82613760565b8082825260208201915060208360051b86010192508583111561387d575f5ffd5b602085015b83811015610d835780356001600160401b0381111561389f575f5ffd5b6138ae886020838a01016136a9565b84525060209283019201613882565b5f5f5f5f608085870312156138d0575f5ffd5b84356001600160401b038111156138e5575f5ffd5b6138f187828801613782565b94505060208501356001600160401b0381111561390c575f5ffd5b613918878288016137e4565b93505060408501356001600160401b03811115613933575f5ffd5b61393f8782880161383f565b949793965093946060013593505050565b848152836020820152826040820152608060608201525f6114b360808301846135e9565b60a081525f61398660a08301886135e9565b602083018790526001600160a01b038616604084015282810360608401526139ae81866135e9565b91505082151560808301529695505050505050565b634e487b7160e01b5f52602160045260245ffd5b600881106139f357634e487b7160e01b5f52602160045260245ffd5b9052565b60208101610c9682846139d7565b5f60208284031215613a15575f5ffd5b6117e682613629565b5f5f60408385031215613a2f575f5ffd5b82359150613a3f60208401613629565b90509250929050565b803560ff811681146112fa575f5ffd5b5f5f60408385031215613a69575f5ffd5b82359150613a3f60208401613a48565b5f5f83601f840112613a89575f5ffd5b5081356001600160401b03811115613a9f575f5ffd5b602083019150836020828501011115613ab6575f5ffd5b9250929050565b5f5f5f5f5f5f5f60c0888a031215613ad3575f5ffd5b87359650613ae360208901613a48565b9550613af160408901613629565b945060608801356001600160401b03811115613b0b575f5ffd5b613b178a828b01613a79565b90955093505060808801356001600160401b03811115613b35575f5ffd5b613b418a828b016136a9565b92505060a08801356001600160401b03811115613b5c575f5ffd5b613b688a828b016136a9565b91505092959891949750929550565b5f5f5f5f5f60808688031215613b8b575f5ffd5b85359450613b9b60208701613a48565b935060408601356001600160401b03811115613bb5575f5ffd5b613bc188828901613a79565b90945092505060608601356001600160401b03811115613bdf575f5ffd5b613beb888289016136a9565b9150509295509295909350565b65ffffffffffff81168114610cb2575f5ffd5b5f60208284031215613c1b575f5ffd5b81356117e681613bf8565b5f5f5f5f60608587031215613c39575f5ffd5b84359350613c4960208601613a48565b925060408501356001600160401b03811115613c63575f5ffd5b613c6f87828801613a79565b95989497509550505050565b5f5f5f5f60808587031215613c8e575f5ffd5b84356001600160401b03811115613ca3575f5ffd5b613caf87828801613782565b94505060208501356001600160401b03811115613cca575f5ffd5b613cd6878288016137e4565b93505060408501356001600160401b03811115613cf1575f5ffd5b613cfd8782880161383f565b92505060608501356001600160401b03811115613748575f5ffd5b5f8151808452602084019350602083015f5b82811015613d48578151865260209586019590910190600101613d2a565b5093949350505050565b60ff60f81b8816815260e060208201525f613d7060e08301896135e9565b8281036040840152613d8281896135e9565b606084018890526001600160a01b038716608085015260a0840186905283810360c08501529050613db38185613d18565b9a9950505050505050505050565b5f5f60408385031215613dd2575f5ffd5b82356001600160401b03811115613de7575f5ffd5b613df3858286016136a9565b95602094909401359450505050565b5f5f5f5f60808587031215613e15575f5ffd5b84359350613e2560208601613a48565b9250613e3360408601613629565b915060608501356001600160401b03811115613748575f5ffd5b5f5f5f60608486031215613e5f575f5ffd5b613e6884613629565b92506020840135915060408401356001600160401b03811115613e89575f5ffd5b613e95868287016136a9565b9150509250925092565b5f60208284031215613eaf575f5ffd5b81356001600160401b03811115613ec4575f5ffd5b611343848285016136a9565b5f5f5f5f5f60a08688031215613ee4575f5ffd5b613eed86613629565b9450613efb60208701613629565b935060408601356001600160401b03811115613f15575f5ffd5b613f21888289016137e4565b93505060608601356001600160401b03811115613f3c575f5ffd5b613f48888289016137e4565b92505060808601356001600160401b03811115613bdf575f5ffd5b5f5f5f5f60608587031215613f76575f5ffd5b613f7f85613629565b93506020850135925060408501356001600160401b03811115613c63575f5ffd5b5f60208284031215613fb0575f5ffd5b813563ffffffff811681146117e6575f5ffd5b5f5f5f60608486031215613fd5575f5ffd5b83356001600160401b03811115613fea575f5ffd5b613ff6868287016136a9565b9350506020840135915060408401356001600160401b03811115613e89575f5ffd5b5f5f60408385031215614029575f5ffd5b61403283613629565b946020939093013593505050565b5f5f5f5f5f60a08688031215614054575f5ffd5b61405d86613629565b945061406b60208701613629565b9350604086013592506060860135915060808601356001600160401b03811115613bdf575f5ffd5b5f5f5f606084860312156140a5575f5ffd5b83356001600160401b038111156140ba575f5ffd5b6140c6868287016136a9565b935050602084013591506140dc60408501613629565b90509250925092565b600181811c908216806140f957607f821691505b60208210810361411757634e487b7160e01b5f52602260045260245ffd5b50919050565b634e487b7160e01b5f52603260045260245ffd5b634e487b7160e01b5f52601160045260245ffd5b81810381811115610c9657610c96614131565b5f60208284031215614168575f5ffd5b81516001600160401b0381111561417d575f5ffd5b8201601f8101841361418d575f5ffd5b805161419b6136cb82613683565b8181528560208385010111156141af575f5ffd5b8160208401602083015e5f91810160200191909152949350505050565b65ffffffffffff8281168282160390811115610c9657610c96614131565b5f81518060208401855e5f93019283525090919050565b5f6117e682846141ea565b606081525f61421e60608301866135e9565b6020830194909452506001600160a01b0391909116604090910152919050565b5f6020828403121561424e575f5ffd5b81516117e681613bf8565b65ffffffffffff8181168382160190811115610c9657610c96614131565b818382375f9101908152919050565b5f8151808452602084019350602083015f5b82811015613d485781516001600160a01b0316865260209586019590910190600101614298565b5f82825180855260208501945060208160051b830101602085015f5b8381101561430d57601f198584030188526142f78383516135e9565b60209889019890935091909101906001016142db565b50909695505050505050565b608081525f61432b6080830187614286565b828103602084015261433d8187613d18565b9050828103604084015261435181866142bf565b91505082606083015295945050505050565b604081525f61437560408301856135e9565b90508260208301529392505050565b8381526060810161439860208301856139d7565b826040830152949350505050565b80820180821115610c9657610c96614131565b60ff8181168382160190811115610c9657610c96614131565b6001815b600184111561288a578085048111156143f1576143f1614131565b60018416156143ff57908102905b60019390931c9280026143d6565b5f8261441b57506001610c96565b8161442757505f610c96565b816001811461443d576002811461444757614463565b6001915050610c96565b60ff84111561445857614458614131565b50506001821b610c96565b5060208310610133831016604e8410600b8410161715614486575081810a610c96565b6144925f1984846143d2565b805f19048211156144a5576144a5614131565b029392505050565b5f6117e660ff84168361440d565b84815260ff84166020820152826040820152608060608201525f6114b360808301846135e9565b85815260ff8516602082015283604082015260a060608201525f61450960a08301856135e9565b82810360808401526113fc81856135e9565b8981526001600160a01b0389166020820152610120604082018190525f906145459083018a614286565b8281036060840152614557818a613d18565b9050828103608084015280885180835260208301915060208160051b84010160208b015f5b838110156145ae57601f198684030185526145988383516135e9565b602095860195909350919091019060010161457c565b505085810360a08701526145c2818b6142bf565b93505050508560c08401528460e08401528281036101008401526145e681856135e9565b9c9b505050505050505050505050565b5f60208284031215614606575f5ffd5b5051919050565b8082028115828204841417610c9657610c96614131565b634e487b7160e01b5f52601260045260245ffd5b828152604060208201525f6117e360408301846135e9565b5f8261466a57634e487b7160e01b5f52601260045260245ffd5b50049056fea2646970667358221220cc498eff5a1b8ff5713970d833cdad49104f65f0aa6ab2bc39acc52d8bd2db8164736f6c634300081b0033",
  "linkReferences": {},
  "deployedLinkReferences": {}
}